:020000041B00DF
:10000000400500200508001B0908001B0B08001B09
:1000100000000000000000000000000000000000E0
:100020000000000000000000000000000D08001BA0
:100030000F08001B000000001108001B1308001B24
:100040001508001B7103001B1508001B00000000B1
:100050001508001B1508001B1508001B1508001BC0
:100060001508001B1508001B1508001BF501001BD7
:100070001508001B1508001B1508001B1508001BA0
:100080001508001B1508001B1508001B1508001B90
:100090001508001B1508001B1508001B1508001B80
:1000A0001508001B1508001B1508001B1508001B70
:1000B0001508001B1508001B1508001B1508001B60
:1000C0000348854600F0E6FD004800471102001B8A
:1000D0004005002082B00190074800680090FFE7CB
:1000E000054800680099401A0199884201D8FFE745
:1000F000F6E702B07047C0462C00002080B582B001
:1001000001900198401E0A4908600B2000900321CD
:1001100000F016F80098074A00211160064A1160A5
:10012000064A0E21116000F04FF802B080BDC046B3
:1001300000000C4004000C400C000C4008000C4077
:1001400070B582B0024601A802700091007840B2FA
:10015000002817D4FFE701A9087840B20322D3434F
:100160001840184A8058097849B28C07E50EFF24D8
:10017000AC40A043009CA401E4B2AC402043194031
:1001800088501AE001A908780F242040083803227B
:10019000D34318400A4A8058097849B28D07EE0EB9
:1001A000FF25B540A843009DAD01EDB2B540284301
:1001B0002140083919408850FFE702B070BDC046A1
:1001C0001CED00E000E400E081B0014668460170EB
:1001D000007840B2002809D4FFE7684601781F2064
:1001E00001400120884002490860FFE701B07047E4
:1001F00000E100E004490868012210430860034957
:100200000868401C0860704708000C402C00002063
:1002100080B596B00020039015900120FFF7D4FF21
:100220003A4800687D21C90000F01EFBFFF766FF19
:10023000039814A90870322113916946129111A9EB
:10024000088033480821202200F0A4F800F09AF832
:10025000FFE7FFE700F07CF8012855D1FFE7002019
:1002600000F07CF804A83221FF2200F0EBFA2948C4
:10027000019000F05BF8019800780290022808D005
:10028000FFE70298032811D0FFE70298042819D04D
:100290001FE014A800780A2100F0E6FA0A46302090
:1002A00002431F4904A800F09BFD18E014A8007841
:1002B000192100F0D9FA4131CAB2184904A800F056
:1002C0008FFD0CE011A80288134904A800F088FDF6
:1002D00005E0144904A8582200F082FDFFE71498B5
:1002E000411C14A8009001700078FF2100F0BCFAB6
:1002F000009801700C4804A941601499017000F045
:100300001EF800F03FF8FFE7A3E7C0461800002002
:1003100030000020300100202317001B1717001B9E
:100320000A17001B3017001B3801002080B582B06F
:1003300001900198002100F07DF902B080BD80B5E8
:1003400082B001900198002100F0BEF802B080BD9B
:10035000014800787047C0462800002081B06946F7
:10036000087000980149087001B07047280000200B
:1003700080B50349002008600120FFF7EFFF80BD32
:100380003031044080B500F001F880BDBFF34F8FDD
:1003900040BF704780B584B00390029101920298EB
:1003A000002808D0FFE70198002804D0FFE7039851
:1003B000002802D1FFE7FFE7FEE70198411E08424F
:1003C00002D0FFE7FFE7FEE7104802680021D16195
:1003D000916151611161D160916051601160019929
:1003E0000268916002990268516003990268116085
:1003F00001680748486101200090072100F00AF8D1
:10040000009800F04BF804B080BDC04620000020EA
:100410005310B5CA70B582B0024601A802700091AF
:10042000007840B2002817D4FFE701A9087840B24D
:100430000322D3431840184A8058097849B28C07E0
:10044000E50EFF24AC40A043009CA401E4B2AC4004
:100450002043194088501AE001A908780F24204051
:1004600008380322D34318400A4A8058097849B211
:100470008D07EE0EFF25B540A843009DAD01EDB2FE
:10048000B54028432140083919408850FFE702B0A1
:1004900070BDC0461CED00E000E400E081B0014604
:1004A00068460170007840B2002809D4FFE768462A
:1004B00001781F2001400120884002490860FFE7C1
:1004C00001B0704700E100E080B58AB00890079164
:1004D0005348006840695349884204D0FFE702202E
:1004E000C043099098E00798002810D1FFE74C49D5
:1004F0000868C0680A681269801A096889688842B1
:1005000004D3FFE70020C043099085E069E0079825
:1005100000280ED5FFE7FFE741490868C0680A6870
:100520001269801A09688968884201D3FFE7F3E7F6
:1005300056E0FFE73C4800680590079804903B4868
:1005400000687D21C90000F08FF9049A01460598E2
:10055000514340180690069935480818884205D23C
:10056000FFE70698324940180690FFE7FFE72C485E
:100570000168C96802681269891A006882680020E7
:10058000914203900ED3FFE727480168069A0120A5
:10059000002301939142029001D3019802900298A6
:1005A0000390FFE70398C007002801D0FFE7DEE7CC
:1005B0001B490868C0680A681269801A0968896856
:1005C000884203D3FFE700200790FFE7FFE7079883
:1005D000002804D1FFE70320C04309901CE0FFE797
:1005E000FFE70F4A0092106800681168CB68116835
:1005F0008968491E0B401168496859434018089999
:100600001268526800F00CF900980168C868401C34
:10061000C86000200990FFE709980AB080BDC04675
:10062000200000205310B5CA0C000C401800002018
:100630008813000010B58AB0089007914D480068F3
:1006400040694D49884204D0FFE70220C043099029
:100650008CE0079800280DD1FFE746490868C0687C
:1006600009680969884204D1FFE70120C043099065
:100670007CE060E0079800280BD5FFE7FFE73D49E5
:100680000868C06809680969884201D1FFE7F6E790
:1006900050E0FFE739480068059007980490384813
:1006A00000687D21C90000F0DFF8049A0146059832
:1006B000514340180690069932480818884205D2DE
:1006C000FFE706982F4940180690FFE7FFE7294803
:1006D0000168C968006802690020914203900ED148
:1006E000FFE726480168069A012000230193914202
:1006F000029001D30198029002980390FFE70398BB
:10070000C007002801D0FFE7E1E71A490868C06880
:1007100009680969884203D1FFE700200790FFE7D5
:10072000FFE70798002804D1FFE70320C0430990A2
:100730001CE0FFE7FFE708980E4A0092116809687D
:1007400013681C6913689B685B1E1C4013685B6818
:100750006343C9181268526800F062F80098016893
:100760000869401C086101200990FFE709980AB058
:1007700010BDC0461C0000205310B5CA0C000C4030
:10078000180000208813000084B00290029800280E
:1007900004D0FFE70F480068009003E00C480068B1
:1007A0000090FFE700980190019840690A4988424B
:1007B00004D0FFE70220C043039006E00198C06820
:1007C00001990969401A0390FFE7039804B0704744
:1007D0001C000020200000205310B5CA81B00090FA
:1007E0000098002805D5FFE700990120401A0090E5
:1007F000FFE7009881000248405801B07047C046AA
:100800000000002004480047FEE7FEE7FEE7FEE7A1
:10081000FEE7FEE7FEE70000C100001B70467047E0
:1008200003460B439B0703D009E008C9121F08C009
:10083000042AFAD203E00B780370401C491C521EB4
:10084000F9D27047D2B201E00270401C491EFBD2BF
:1008500070470022F6E710B513460A4604461946CB
:10086000FFF7F0FF204610BD70B50446002903D005
:1008700000202022012310E0002801D00020C043E6
:10088000C046C0460DE02546D5408D4205D30D46F5
:100890009540641B1D46954040191546521E002D7B
:1008A000F1DC214670BDF0B51FB40646002082B0D1
:1008B00005464024019100901BE0019922460F4615
:1008C000304600F009FA049A059B801A994110D32A
:1008D00010461946224600F0EFF9361A8F4101976B
:1008E000224601200021009F00F0E6F938184D4112
:1008F00000902046641E0028DFDC019B00982946FA
:10090000324607B0F0BD0000F0B507460846584033
:1009100087B0C00F049048000E46590040084908AF
:10092000BC1A884105D2384631461E4617460B464A
:1009300002465800400810434CD0300D039040054B
:100940005900400D490D0590401A0290402872DA76
:1009500018030121000B0905084301900498009237
:10096000002805D001995242002088410092019050
:10097000029840210A1A0199009800F09DF9054655
:100980000C466B4607CB00F0B8F9C0197141039AC9
:100990000E0D0023D71756401A467A40164344D00E
:1009A000049A002A2DD0029A012A039A15DC120516
:1009B000C01A914101263605001C7141D20F059ED7
:1009C000D2070093019202962A46234600F0B5F919
:1009D00007B0F0BD38463146FAE71605224A0F4601
:1009E000B218C01AB74101210905001C4F41001877
:1009F0007F41114618187941E20F10436D19644187
:100A000013E0E2076D0815436408C2071443039A14
:100A100001261205C01A91413605001C7141CE070E
:100A2000400830434908C01851412A46234600F087
:100A300077F9CDE7FFE7049801224000C117121AA9
:100A400000238B4104983146C417381AA141EEE7C0
:100A500030B40124E407634030BC55E730B40124CE
:100A6000E407614030BC4FE70000E0FFF0B51FB481
:100A700088B00B990998002448400999C00F490093
:100A800049080991C0070B990090490049080B914A
:100A900009990898A64608431CD00B990A98084360
:100AA00018D0099801244000420D4800410D0998D2
:100AB00024050003000B204309900B980003000B52
:100AC00020430B9050181C494018002201901446F6
:100AD000104605E0002001460DB0F0BD032801DA04
:100AE000034600E003239C46C11A0AAE0AE05F00F9
:100AF00008ADED5B4F00F75B7D430027AA187C41F2
:100B0000491C5B1E6145F2DD410004AB5A522104D1
:100B1000120C0A43240C401C0828DFDB01980290C9
:100B20000099704601910090059B049A07990698D8
:100B300000F003F9D0E700000DFCFFFFF0B50C4614
:100B40005C4085B0E40FE40703944C000026640881
:100B500059009446490802460296224321D0624633
:100B60000A431ED06200570D4A000E032303550DA1
:100B7000012402462C492405781B1B0B360B401818
:100B800023432643614600901C46501AB44103D3C8
:100B90000098401C009002E0921800985B410028E9
:100BA00003DA0020014605B0F0BD0020012109054F
:100BB0000746864611E064461D46141BB54106D320
:100BC0006546521BB341744607430C43A646CD0706
:100BD00040084908284392185B4105460D43EAD175
:100BE0001046184313D060461946504071400843E0
:100BF00006D06046101AB34106D20122002306E057
:100C000000220123DB0702E00122D24353100098A7
:100C100074460105381C6141029C039D001969411D
:100C200000F07EF8BFE70000FD0300004A00090362
:100C30000123090B1B0519430A4B10B5520D9A42AB
:100C400002DA0020014610BD064B34339A4203DC21
:100C50009A1A00F041F810BD034BD21800F02CF89E
:100C600010BD0000FF030000CDFBFFFF10B5002901
:100C700004DB0124E40740428C412146002B04DBC5
:100C80001C460123DB075242A341994200D1904206
:100C900010BD0000064C0125064E05E0E36807CCB8
:100CA0002B430C3C98471034B442F7D3FFF70CFAAF
:100CB000B417001BD417001B10B5202A04DB014613
:100CC000203A9140002010BD914020239C1A0346F9
:100CD000E3401943904010BD10B5202A04DB0846BC
:100CE000203AD040002110BD0B46D340D0402024F4
:100CF000A21A91400843194610BD10B5202A06DB00
:100D0000CB170846203A1041C1170B4306E00B46AB
:100D10001341D0402024A21A91400843194610BD27
:100D200010B5002B08DA0024401C614192185B4189
:100D30001A4301D14008400010BDF0B51FB482B085
:100D400005460C0003D0084600F05EF802E000F013
:100D50005BF820300246009021462846FFF7ACFFA2
:100D6000049B059A04460F4618431143084314D0C8
:100D7000184610431BD0009840210A1A18460599BE
:100D8000FFF7AAFF05460E46009A05990498FFF75B
:100D900093FF084305D0012004E02046394607B000
:100DA000F0BD0020C11705430E432C433743009983
:100DB0000E986305401A7905E40A00220C43FD0AE7
:100DC0000A3002D500200146E9E701051019694102
:100DD0000C9C0D9D00196941FFF7A2FFDFE70000A1
:100DE0000FB410B504A9074B02AA039800F0ECF861
:100DF000044602A9002000F083FC204610BC08BC79
:100E000004B018470117001B2021020C01D010214B
:100E10001046020A01D010460839020901D01046D6
:100E2000091F820801D01046891E420801D0881E81
:100E30007047081A704702E008C8121F08C1002A4C
:100E4000FAD170477047002001E001C1121F002A4B
:100E5000FBD17047F0B51FB486B00998089A030D0E
:100E60000021024314D05148514A18185043051428
:100E70001198012810981AD0281A401C00264D4FAE
:100E80004D49009601910490002812DA444211E085
:100E90001198012449A3012801D11098C143069853
:100EA000119A84600360C26041600BB0F0BD4042A3
:100EB000E4E70446210500203F4A001C514103910C
:100EC000029012E0E00707D032463B4601990098B5
:100ED000FFF7CCFD0191009032463B461046194683
:100EE000FFF7C4FD06460F466410002CEAD10498B3
:100EF000039B0028029A0999089806DAFFF7B6FDC5
:100F0000019B009AFFF7B2FD05E0FFF717FE019B7A
:100F1000009AFFF713FE04460E460022284BFFF707
:100F2000A5FE03D80020C043014607E00022254B60
:100F300020463146FFF7E8FCFFF778FE102409E071
:100F4000002C0ADB0A220023FFF7ADFC079B30329E
:100F50001A55641E02460A43F2D11122641C079BF3
:100F6000121B1C19119B012B03D0012308430ED126
:100F70000AE0084304D0112010900020119077E778
:100F80001098151A6D1E0BE01098824202DD0023A6
:100F90006D1C03E0824201DA00236D1E002BEED0AF
:100FA000069811998260C16030C07EE701FCFFFFA6
:100FB000104D0000000014400000F03F3000000021
:100FC0000000F0430000E03FFFB597B00646002563
:100FD00018E2252877D100242746FD49049400E033
:100FE0000443761C32780120203A90400842F7D121
:100FF00030782A280ED0022230780146303909296B
:1010000016D804990A235943303940181443761CE2
:101010000490F1E7189802C804911890002904DAA6
:101020000120400304434842049002200443761CFC
:1010300030782E2814D1042004437078761C2A2896
:1010400009D11898761C80C8189009E00A214F43EE
:10105000303FC719761C3078014630390929F5D957
:1010600030786C2810D006DC4C281AD068280ED0B6
:101070006A2817D104E0742813D07A2812D110E01E
:101080000120400504430CE00121090501E0032192
:1010900009050C437178814203D101200005241811
:1010A000761C761C3078119066280BD013DC5828FB
:1010B0007DD009DC00287BD04528F6D04628F4D026
:1010C00047281AD1A5E118E0632835D0642870D0EC
:1010D000652812D19DE170286CD008DC6728F1D01A
:1010E00069287BD06E280DD06F2806D1BAE073280E
:1010F0002ED0752871D0782859D01A9A199990470E
:101100006D1C7EE16002400F022809D003280DD03B
:101110000428189801680DD00D60001D189070E12A
:101120001898EA1701680D604A60F6E71898016898
:101130000D80F2E70D70F0E718986A460178117299
:10114000001D18900020507202A80090012005E0B8
:10115000189802C8189000200091C04361070DD56F
:10116000002101E00199491C0191B94212DA814242
:10117000F8DB009A515C0029F4D10BE0002101E07A
:101180000199491C01918142FADB019A0099895C1D
:101190000029F5D1019904981A9B471A214638462F
:1011A000199A00F097FA0199401945180BE04FE0A1
:1011B0002CE113E04EE0009800990078491C009162
:1011C0001A9A199990470198401E0190401CF2D13B
:1011D000214638461A9B199A10E137E00A2000216F
:1011E000009001916002410F022907D0189A01CAAC
:1011F0001892C2179446032908D00AE01898C01D17
:10120000C108C90005C91891944607E000B2C21789
:101210009446042902D140B2C1178C46002261468F
:10122000944506DA0A460021404291418C462D2120
:1012300002E0210504D52B216A461173012103E048
:10124000E10701D02021F7E7029155E00A200AE0EA
:10125000102008E010200090002104200443019198
:10126000082703E008200021019100906002410F4F
:10127000022907D0189A01CA18920022944603291D
:1012800008D008E01898C01DC108C90005C9189108
:10129000944603E080B2042900D1C0B2002102913B
:1012A000210729D51199702906D0009A1021019B98
:1012B0004A401A4305D00EE040216A4611730121CD
:1012C00008E06146014306D030216A461173119946
:1012D000517302210291009A0821019B4A401A434E
:1012E0000AD16146014301D1610705D530216A4623
:1012F000117301217F1E02911199582904D035A143
:101300000E910DA90D910DE037A1F9E76146019B02
:10131000009AFFF7C8FA0E9B8C469B5C0D9A521EF2
:101320000D92137061460143F0D10D9805A9081A7A
:1013300020300190600703D501200004844300E0C1
:1013400001270198874201DD381A00E00020019949
:1013500000904118029809180498401A0490E0037C
:1013600006D421461A9B199A049800F0B3F945193E
:10137000002706E003A81A9AC05D199990476D1CD2
:101380007F1C02988742F5DBE0030CD521461A9BAF
:10139000199A049800F09EF9451904E01A9A302031
:1013A000199990476D1C0099481E00900029F5DCA2
:1013B00008E00D980D990078491C0D911A9A199919
:1013C00090476D1C0199481E01900029F1DC63E1F2
:1013D000092801003031323334353637383961620B
:1013E00063646566000000003031323334353637CF
:1013F00038394142434445460000000000F05AF9A4
:101400004519761C3078002800D0E2E528461BB04C
:10141000F0BD600700D406271898C01DC108C90098
:1014200048680A680831C30FDB071891190001D01A
:101430009CA108E0210501D59BA104E0E10701D0B2
:101440009AA100E09AA1430011985B0810916528C9
:101450000CD006DC452809D046281DD0472841D1AC
:1014600041E0662818D067283CD13CE00021112FCC
:1014700001DB112000E0781C0191009008A911A85F
:10148000FFF7E8FC139905910021119A15927F1C32
:1014900012980197009150E00120C00703900120AD
:1014A000019008A9009711A8FFF7D4FC139A14998A
:1014B00005920022119B009212981593059A0192B1
:1014C000002901D0104602E0791C40180190381A1A
:1014D00001D5019804E04042401E0090781C019024
:1014E000C01B029043E0012F00DA01270021112FD9
:1014F00001DD112000E038460191009008A911A8F3
:10150000FFF7A8FC13990591119A002112981592E2
:101510000091019721070CD40599B94201DB01998B
:1015200000E00191012904DD159A491E515C302922
:1015300006D0B84201DA011D05DA0121029115E059
:101540000199491EEDE7002805DC0099411800913A
:101550000199091A03E0019A411C914200DD0191B1
:101560000099401A401C02900120C00703902007F8
:1015700006D402990198814202DB0020C043029008
:1015800000206946C87707AF012103980337C907D0
:10159000884224D0022011902B201290039800281A
:1015A0000CDA404203902D20129007E00A210398A4
:1015B000FFF75AF930317F1E039039701199481E98
:1015C00011900029F2DC03980028EFD1791E1298BF
:1015D00008703078202108404530BF1E387006A8BA
:1015E000C01BC01D039010980078002800D0012077
:1015F000019941180298C01709180398091804980E
:10160000401A401E0490E00306D421461A9B199A02
:10161000049800F05FF8451910980078002803D06E
:101620001A9A199990476D1CE00324D521461A9BFC
:10163000199A049800F04EF845191CE0009800280B
:1016400007DB00990598884203DD1598405C1999DD
:1016500001E0199930201A9A904700986D1C401C9F
:1016600000900298401E0290002804D11A9A2E2061
:10167000199990476D1C0199481E01900029DDDCE5
:1016800005E038781A9A7F1C199990476D1C0399C8
:10169000481E03900029F4DC21461A9B199A0498ED
:1016A000ACE600002D0000002B0000002000000030
:1016B00000000000F8B5044600251E4617468804C1
:1016C00004D405E039462020B0476D1C641EF9D5CE
:1016D0002846F8BDFFB50446002581B01E46C80364
:1016E00001D5302700E02027880404D505E03846DE
:1016F0000399B0476D1C641EF9D5284605B0F0BDAE
:101700000A68531C0B60107070474D6F73636F77DE
:101710002025630D0A000050617269732025750D44
:101720000A00004265726C696E2025750D0A000082
:101730006572726F722025750D0A0000517565750E
:101740006520496E73657274204F4B005175657545
:1017500065204572726F722F4E6F7420696E6974C6
:1017600069616C697A656400517565756520506FB3
:1017700070204F4B2F56616C69640051756575651B
:101780002069732046756C6C005175657565206F16
:101790007065726174696F6E2074696D6564206F25
:1017A000757400517565756520697320456D707499
:1017B00079000000D817001B00000020280000005E
:1017C000360E001B0018001B280000201805000022
:1017D000460E001B000000003C17001B6817001B92
:1017E0007B17001BA317001B4C17001B8917001B3E
:1017F0000095BA0AC09F0810809F081000000000E2
:040000051B0000C11B
:00000001FF
