:020000041A00E0
:10000000682700109504001A9D04001A9F04001A26
:10001000A104001AA304001AA504001A5A5A5A5A35
:10002000000000000000000000000000A704001A0B
:10003000A904001A00000000AB04001A8D2A001A5F
:10004000AF04001A4527001AF519001A0000000035
:10005000AF04001AAF04001AAF04001AAF04001A6C
:10006000AF04001AAF04001AAF04001AAF04001A5C
:10007000AF04001AAF04001AAF04001AAF04001A4C
:10008000AF04001AAF04001AAF04001AAF04001A3C
:10009000AF04001AAF04001AAF04001AAF04001A2C
:1000A000AF04001AAF04001AAF04001A4D33001A4F
:1000B000AF04001AAF04001AAF04001AAF04001A0C
:1000C000AF04001AAF04001AAF04001AAF04001AFC
:1000D000AF04001AAF04001AAF04001AAF04001AEC
:1000E000AF04001AAF04001AAF04001AAF04001ADC
:1000F00000000000AF04001AAF04001AAF04001A99
:1001000000000000AF04001AAF04001AAF04001A88
:10011000AF04001A00000000000000000000000012
:1001200000000000000000000000000000000000CF
:1001300000000000000000000000000000000000BF
:1001400000000000000000000000000000000000AF
:10015000000000000000000000000000000000009F
:10016000000000000000000000000000000000008F
:10017000000000000000000000000000000000007F
:10018000000000000000000000000000000000006F
:10019000000000000000000000000000000000005F
:1001A000000000000000000000000000000000004F
:1001B000000000000000000000000000000000003F
:1001C000000000000000000000000000000000002F
:1001D000000000000000000000000000000000001F
:1001E000000000000000000000000000000000000F
:1001F00000000000000000000000000000000000FF
:1002000000000000000000000000000000000000EE
:1002100000000000000000000000000000000000DE
:1002200000000000000000000000000000000000CE
:1002300000000000000000000000000000000000BE
:1002400000000000000000000000000000000000AE
:10025000000000000000000000000000000000009E
:10026000000000000000000000000000000000008E
:10027000000000000000000000000000000000007E
:10028000000000000000000000000000000000006E
:10029000000000000000000000000000000000005E
:1002A000000000000000000000000000000000004E
:1002B000000000000000000000000000000000003E
:1002C000000000000000000000000000000000002E
:1002D000000000000000000000000000000000001E
:1002E000000000000000000000000000000000000E
:1002F000000000000000000000000000FFFFFFFF02
:1003000000F002F800F0B6F80AA090E8000C824471
:100310008344AAF10107DA4501D100F0ABF8AFF24E
:10032000090EBAE80F0013F0010F18BFFB1A43F0D3
:100330000103184744820000648200000A4410F858
:10034000013B13F0030408BF10F8014B1D1108BF57
:1003500010F8015B641E05D010F8016B641E01F8F3
:10036000016BF9D1002D15D010F8014B03F00C03EF
:100370000C2BA1EB04040ABF10F8013BA4EB83147F
:10038000A4EB032405F1010314F8016B5B1E01F8D3
:10039000016BF9D5914238BF10F8013BD1D37047BA
:1003A0000023002400250026103A28BF78C1FBD87E
:1003B000520728BF30C148BF0B6070476E2900F05C
:1003C0003F82702900F08183662906F0FC8265294E
:1003D00006F0F982672906F0F682612906F0F582B7
:1003E00003681B0A28BF41F08001692900F0EC81F5
:1003F000642900F0E981752900F0E6816F2900F099
:100400000F83782900F04D83E92900F0A982E429BF
:1004100000F0A682F52900F0A382EF2900F00C83FA
:10042000F82900F04C830368DB0928BF41F0800104
:10043000632901F0A780732901F0AC80E32901F062
:10044000B780F32901F0BC80002070471FB506F08B
:10045000ADFA01F00BF904000020002106F090FA3B
:10046000401C60600020002106F074FAE0601FBDAF
:1004700010B510BD01F0CCF81146FFF7E7FF05F00D
:10048000A3FA01F0A9F903B4FFF7F2FF03BC01F0EE
:10049000F1F900000948804709480047FEE7FEE7F8
:1004A000FEE7FEE7FEE7FEE7FEE7FEE7FEE7FEE724
:1004B00004480549054A064B70470000C52A001A42
:1004C0000103001A681B001068270010681F001045
:1004D000681F001053EA020C00F069802DE9F04B10
:1004E0004FF00006002B1FBFB3FA83F503FA05F4A3
:1004F00024FA05F65E4012BF1643B2FA82F502FAFC
:1005000005F4C5F120051EBF22FA05FC44EA0C04DF
:10051000203556EA044C4FEA144418BF641C4FF0CF
:1005200000084FF00009904271EB030C39D3002909
:1005300019BFB1FA81F701FA07F6B0FA80F700FAAD
:1005400007F6C7F120071EBF20FA07FC46EA0C0693
:100550002037B6FBF4FCA7EB0507103F07F01F0B95
:10056000CBF120062CFA06F60CFA0BFB44BFB3467F
:100570000026202FA4BF5E464FF0000B5BEA060C5E
:1005800008BF4FF0010B19EB0B0948EB0608ABFB5A
:10059000027C06FB02CC0BFB03CCC01B71EB0C01F5
:1005A000C1E70B46024641464846BDE8F08B13B50D
:1005B000084318BF4FF0FF300146AFF30080BDE89D
:1005C0001C4070470FB41CB5084B06AA7B44694613
:1005D0000090059800F04DF904460020694600F0AF
:1005E0005BF920461CBC5DF814FB0000C90200004A
:1005F00010B5431C02E010F8011B71B18107FAD15C
:100600004FF0013202C88C1A8C4314EAC211F9D09F
:10061000C01A0A0603D0C01E10BDC01A10BD0A04BD
:1006200001D0801E10BD0902FCD0401E10BD032A5F
:1006300040F2308010F0030C00F0158011F8013BFF
:10064000BCF1020F624498BF11F801CB00F8013BE6
:1006500038BF11F8013BA2F1040298BF00F801CBAA
:1006600038BF00F8013B11F0030300F0FD82083AA7
:10067000C0F0088051F8043B083A51F804CBA0E8D8
:100680000810F5E7121D5CBF51F8043B40F8043B2D
:10069000AFF30080D20724BF11F8013B11F801CB62
:1006A00048BF11F8012B24BF00F8013B00F801CB33
:1006B00048BF00F8012B70474FF000020429C0F03A
:1006C000128010F0030C00F00383CCF1040CBCF199
:1006D000020F18BF00F8012BA8BF20F8022BA1EBD6
:1006E0000C0100F0F5BA5FEAC17C24BF00F8012BD1
:1006F00000F8012B48BF00F8012B70477047704786
:10070000704770B5044685690068C10601D530267A
:1007100000E02026C00707D070BDD4E90121304693
:100720009047206A401C20626D1EF6D570BD70B5E2
:10073000044685690078C00707D170BDD4E901215E
:1007400020209047206A401C20626D1EF6D570BDA7
:1007500009684A0501D540B27047C905FCD500B209
:10076000704709684A0501D5C0B27047C905FCD574
:1007700080B2704770B50C460546012A05D028782E
:10078000800600D5EA69002302E0012305E05B1C36
:10079000934202D2E05C0028F9D1A869E618C01A99
:1007A000A861286A184428622846FFF7AAFF04E0D7
:1007B000D5E9012114F8010B9047B442F8D328463B
:1007C000FFF7B5FF70BD00002DE9F041064600249B
:1007D00010687529314616A510D0FFF7B9FF00281B
:1007E00002DA404213A507E031688A0701D512A555
:1007F00002E0490704D511A5012401E0FFF7B1FF8C
:1008000000210A2206F1240709E0B0FBF2FCB0FB4C
:10081000F2F302FB1C00303078541846491C0028C3
:10082000F3D123462A463046BDE8F04100F0BABA7B
:10083000000000002D0000002B0000002000000040
:1008400011680268006A530501D508700AE0D305F3
:1008500001D5088006E0130603D5C217C1E90002DE
:1008600000E008600120704701694A1C02610878B5
:10087000704700B58FB0CDE90131002105910549E0
:100880007944CDE903101146684600F029F90FB00C
:1008900000BD0000E5FFFFFF0A6802F8010B0A60D7
:1008A000704700002DE9FF5F15468A460446DFF8D1
:1008B000AC80F8440027D8E900103E46CDE900108E
:1008C00010E03AF816106A4602A800F07DFE411CBE
:1008D00007D02178890603D5E269391891420DD8ED
:1008E0000744761C2078800602D5E069B84205DD11
:1008F000AE42E6DB3AF816000028E2D1A069C01B40
:10090000A0612046FFF7FDFED8E90010CDE90010F8
:10091000002017E03AF818106A4602A800F054FECA
:10092000B0F1FF3F81460BD000250DF1080B05E02B
:10093000D4E901211BF8050090476D1C4D45F7D304
:1009400008F10100B0428046E4DB206A38442062AE
:100950002046FFF7ECFEBDE8FF9F00001A61000093
:100960002DE9F0418046D21D22F007020025D2E990
:100970000002F52915A614D0011E72F1000106DA55
:100980000023D0EB030063EB020211A608E0D8F8C5
:1009900000108B0701D50FA602E0490701D50EA66E
:1009A00001251146002408F1240704E000F0B5F900
:1009B00030323A55641C50EA0102F7D12B463246D8
:1009C00021464046BDE8F04100F0ECB900000000CF
:1009D0002D0000002B0000002000000030B400219A
:1009E00000F1240408E002F00705D208303542EA9D
:1009F0004372DB086554491C52EA0305F3D10468CD
:100A0000002310A2250708D504F020040C4304D0CD
:100A1000C46901230CA2641EC46130BC00F0C2B9D9
:100A200010B5044621461068FFF79BFE024620469B
:100A3000BDE810400023D1E7D21D22F00701D1E923
:100A40000023CBE70000000030000000F0B40D46AA
:100A50000188090502D5214C7C4402E01F4C7C44EE
:100A60000E34002100F1240608E002F00F071209FD
:100A7000E75D42EA03721B097754491C52EA0307F7
:100A8000F3D102780023120704D5702D06D009B1E6
:100A9000022311342246F0BC00F084B90123103443
:100AA000F8E770B504460D4621461068FFF759FE79
:100AB000024629462046BDE870400023C6E7D21D05
:100AC00022F00703D3E90023C0E70368126843F06C
:100AD000200303600823C3610023B7E77C5F0000A5
:100AE0002DE9F05F894604464FF0000ADFF874B143
:100AF000FB44C0F820A02046E1688847002874D055
:100B0000252806D0D4E901219047206A401C2062A4
:100B1000F1E700265F462046E16888472028054621
:100B200007DB312D05D2781910F8200C08B10643E7
:100B3000F1E7B00701D526F00406C4F81CA0002791
:100B4000C4F818A02A2D09D0284605F0FBFE38B3BA
:100B500004EB8708303DC8F8185019E059F8041B19
:100B6000204604EB87029161E1688847012F054622
:100B700018D1E069002820DA26F020061DE0D8F818
:100B8000180000EB800005EB40003038C8F8180072
:100B90002046E1688847054605F0D4FE0028EED1DE
:100BA000012F0AD02E2D08D12046E16888477F1CEE
:100BB0000546022F46F02006C4DBA069002803DAB0
:100BC000404246F00106A061F00701D026F0100671
:100BD0006C2D0BD0682D09D04C2D39D06A2D35D015
:100BE000742D35D07A2D33D016E038E0E1682F46E9
:100BF00020468847B842054609D16C2F26D04FF4CD
:100C00008060E168064320468847054604E06C2F73
:100C10001AD04FF4807006430DB3A5F14100192896
:100C200002D8203546F400664A462946204626600A
:100C30004E46FFF7C3FB80B101280BD0F61D26F00E
:100C4000070000F1080956E74020E4E78020D8E7D4
:100C50000020D6E706F104094DE7284652E7206A4E
:100C6000BDE8F09F0C5F000010B5203AC0F00B808B
:100C7000B1E81850A0E81850B1E81850A0E8185092
:100C8000203ABFF4F5AF5FEA027C24BFB1E8185008
:100C9000A0E8185044BF18C918C0BDE810405FEA6A
:100CA000827C24BF51F8043B40F8043B08BF7047E6
:100CB000D20728BF31F8023B48BF11F8012B28BFEB
:100CC00020F8023B48BF00F8012B70474FF00002AC
:100CD00000B5134694469646203922BFA0E80C5032
:100CE000A0E80C50B1F12001BFF4F7AF090728BF0D
:100CF000A0E80C5048BF0CC05DF804EB890028BF89
:100D000040F8042B08BF704748BF20F8022B11F0B1
:100D1000804F18BF00F8012B704730B5B0F10A02C0
:100D200071F100034FEA900E4EEA817EB0EB0E00A7
:100D300061EB91014FEA101E4EEA017E10EB0E00AE
:100D400041EB11114FEA102E4EEA016E10EB0E002E
:100D500041EB11214FEA104E4EEA014E10EB0E000E
:100D600041EB1141401841F100014FEAD00040EA47
:100D700041704FEAD1014FEA810444EA907410EBCC
:100D8000800544EB01046D1944EB0404521BA3419C
:100D90004FF0000348BF0A3200D530BD401C41F17E
:100DA000000130BD2DE9F0470D46994692460446B4
:100DB00000F124080168880604D5E06921F01001DB
:100DC000216000E00120A84201DD471B00E0002770
:100DD000A1697A1902EB0900081AA0612078C006FF
:100DE00002D42046FFF78DFC002608E0D4E901215B
:100DF0001AF806009047206A401C761C20624E4577
:100E0000F4DB2078C0060AD52046FFF77AFC06E01E
:100E1000D4E9012130209047206A401C2062381E0E
:100E2000A7F10107F4DC07E0D4E9012118F8050077
:100E30009047206A401C2062281EA5F10105F3DCC2
:100E40002046FFF774FC2078000602D50220BDE89A
:100E5000F0870120FBE72DE9FF4F0C461E464FF0BF
:100E6000FF378BB0D2E90001DDF860800A908A4636
:100E7000C1F30A5505B93D46002108464FF0000070
:100E8000BAF1000F00F4400005DA00EB80004FF4E7
:100E9000400101EA50004FEA9059B9F1010F00DD1D
:100EA000B9460A9850EA4A000ED044F61050A5F20E
:100EB000FF3545432F14B8F1000F1ED07542291E8F
:100EC0001EDDC9F100021CE0B8F1010F4FF0000077
:100ED00001D0302103E0F24305E02154401CB04230
:100EE000FBDB30460022002121540B99C1F8088019
:100EF000C1E900200FB0BDE8F08FBD1B6D1CDEE71F
:100F00004A4600DA694206A800F0F4FB06AB93E813
:100F1000070003AB83E8070050460A9905F032F951
:100F20008DE80700A0F500501F3800900398002DB1
:100F30000ADD42F21F014A460844002303A9039038
:100F4000684605F09BFB09E0A0F500504A461F38B3
:100F5000002303A90390684605F0A5FB8DE8070070
:100F60000004000C03D04FF0FF30410800E01046B1
:100F7000B8F1000F03D00022009215461EE0751E46
:100F800005D4FFF7CAFE303262556D1EF9D5B3465F
:100F90000122084302D000227F1C04E02078302880
:100FA00001D100227F1E002A099784D01DE0112D57
:100FB00007DAFFF7B2FE303262556D1C50EA0102CB
:100FC000F5D1084302D00098C8B10EE00021681E98
:100FD00005E0235C625C63542254401E491C81423C
:100FE000F7DBAB46A81B401E0990002004F80B005D
:100FF0000B98099AC0F80880C0E9002B7AE71126FF
:101000004FF0000857E72DE9F04F88460446D21DFF
:1010100022F0070191B0D1E90001CDE90A0105F004
:1010200079FC02460B98C00F01D02D2007E0206804
:10103000810701D52B2002E0202101EAC000032A0C
:10104000099001D0072A05DB03464146204600F0FF
:1010500011FB0BE12078800601D5E06900E0062055
:10106000B8F1650F814606D0B8F1660F18D0B8F117
:10107000670F70D131E00020B9F1110F009001DB52
:10108000112301E009F101030AAA01A90CA8FFF745
:10109000E2FEDDE90C70002609F10105834647E018
:1010A00001204B4600904FF000470AAA01A90CA866
:1010B000FFF7D1FEDDE90DB00C995D46002610B9B1
:1010C00009F101000D18B9EB050003D4C0F1FF369A
:1010D00009F10105A5EB09002BE0B9F1010F01DAD7
:1010E0004FF001090020B9F1110F0090484601DDD1
:1010F000112300E003460AAA01A90CA8FFF7ABFEE2
:10110000DDE90C704D4600268346207800070AD49E
:10111000AB4500DA5D4601A8012D04DD411911F847
:10112000011C302907D04F4502DA17F1040F04DA09
:10113000012082460FE06D1EEEE7002F02DCED1B62
:101140003E4403E0781CA84200DD7D1CB81B00F182
:10115000010A4FF000472078000703D4AA4501DBBD
:101160004FF0FF3A0021B7F1004F0DF143088DF821
:10117000431024D002202B23002F01DA7F422D239D
:101180000A21021EA0F1010000DC5FB197FBF1FC17
:1011900097FBF1F201FB1C7C17460CF1300C08F8B0
:1011A00001CDEEE7A8F1010003702188090501D502
:1011B000452100E06521A0F1010800F8011C099813
:1011C0000FA9A1EB0807FF1D00B10120411901EB98
:1011D000EA70A1693844081A401EA0612078C00650
:1011E00002D42046FFF78DFA099828B1D4E90121ED
:1011F0009047206A401C20622078C00622D52046F5
:10120000FFF77FFA1EE0002E04DBB34502DD01A8E4
:10121000805D00E03020D4E901219047206A401C25
:101220002062761CAAF101005FEA000A0AD100F0F0
:101230001DFAC0680168405CD4E901219047206A2A
:10124000401C2062281EA5F10105DCDC07E0D4E982
:10125000012118F8010B9047206A401C2062381EBB
:10126000A7F10107F3DC2046FFF761FA032011B074
:1012700041E600002DE9F04F04460D46D21D22F054
:10128000070089B0D0E900974846394605F042FB8F
:101290000246F80F01D02D2307E02068810701D511
:1012A0002B2302E0202101EAC0038DF820300BB18E
:1012B000012000E00020032A824601D0072A04DB37
:1012C0002946204600F0D6F93FE12078800601D477
:1012D0000D2500E0E569C7F30A560D2D49DA002116
:1012E0004FEA175B08464FF00000002F00F4400063
:1012F00007DA00EB80004FF4400100EBD07001EA08
:1013000060008115012901DD4FF0FF3100224FEA15
:10131000850CBCF1180F06D31346ACF118004FF042
:101320008052C24003E04FF4801323FA0CF30CF117
:101330000C0CBCF1200F04D3ACF1200C09FA0CF01A
:1013400001E007FA0CF000294FF0004801DD18B960
:101350000FE00ED140450CD319EB02095F4121B9D2
:10136000404502D19F4329EA0209BBEB175F00D039
:10137000761C2088000502D57B48784402E07A4834
:101380007844193808AA302302F80A30037C0AF19D
:101390000101002E0AF1020A53546A4602DC4FF0A2
:1013A000300101E04FF031014FF001088DF80010DD
:1013B00002D0A6F2FF3603E059EA470100D06B4E97
:1013C000002D02DC2178090704D54FF002082E21F8
:1013D0008DF80110C44600210BE0C7F303433F0121
:1013E000C35C491C6D1E02F80830052908F101088C
:1013F00001DA002DF1DC00210CE000EB1973491C2F
:101400001B786D1E082902F808304FEA091908F107
:10141000010801DA002DF0DC21688B0602D516E008
:10142000A8F10108E04505DD02EB080313F8013CD3
:10143000302BF5D0B8F1000F09DD02EB080313F8EB
:10144000013C2E2B03D1090701D4A8F10108002D7E
:1014500005DD3E2102F808106D1E08F10108407CF0
:10146000002E02F8080008F1010804DA2D20764267
:1014700002F8080002E02B2002F808000A214FF4CD
:101480007A70864208F101080BDB96FBF0F33033EB
:1014900002F8083096FBF0F308F1010800FB136630
:1014A00001E0642E0CDB642096FBF0F3303302F88D
:1014B000083096FBF0F308F1010800FB136601E029
:1014C0000A2E06DB96FBF1F0303002F8080008F136
:1014D000010896FBF1F001FB1060303002F80800C3
:1014E000A16908F1010808EB050202EB0A00081ADD
:1014F000A0612078C00602D42046FFF702F9216AD5
:1015000008AE01EB0A00206204E0D4E9012116F8DC
:10151000010B9047BAF1010AF7D22078C00602D534
:101520002046FFF7EEF86E4609E016F8010B3E285C
:101530000FD0D4E901219047206A401C2062B8F105
:101540000108F2D22046FFF7F2F809B00320BDE807
:10155000F08F206A2844206203E0D4E90121302082
:1015600090476D1EEBD3F8E7A656000002FCFFFF84
:1015700010B5436913B1AFF3008001E0FFF7FAF84B
:10158000012010BD127800F124010A7000224A7077
:101590000122EDE711684FF0FF32E9E710B543692A
:1015A00013B1AFF3008001E0FFF77CF9012010BD1B
:1015B000128800F1240182840022C2840122EDE716
:1015C00011684FF0FF32E9E72DE9F04116460C466D
:1015D000054600F043F8036893F80101012807D09D
:1015E000FF2C12D8185D80B101202C70BDE8F0816D
:1015F000D3F807013246214603F20713C7182846DD
:10160000BC46BDE8F041002360474FF0FF30EDE7F6
:10161000754600F0EBF8AE4605006946534620F0EB
:101620000700854618B020B5FEF742FFBDE8204010
:101630004FF000064FF000074FF000084FF0000B8E
:10164000AC46ACE8C009ACE8C009ACE8C009ACE8FD
:10165000C00921F007018D467047000010B500F069
:1016600005F8001D10BD00BF195300000048704769
:10167000301800102DE9F0411F460446032601688A
:10168000072A01F4006004DB08B116A505E016A5E1
:1016900003E008B115A500E015A521F010002060B9
:1016A000A069C01EA0610FB1401EA0612046FFF7D7
:1016B00028F84FB1D4E9012138469047206A401CF0
:1016C0002062C01C206206E0206AFAE7D4E901210A
:1016D00015F8010B9047761EF8D22046FFF727F841
:1016E000BDE8F0814E414E006E616E00494E4600ED
:1016F000696E66002DE9F047814616468AB0354886
:1017000078440DC88DE80D0032487844801C03AC45
:101710000DC884E80D0041F69B300844372190FB4A
:10172000F1F290FBF1F5A5F1800501FB12041B3CE1
:1017300002D56442012000E00020DFF898A0804636
:101740000027FA44AAF1BE0A0EE0E0070AD03246AA
:10175000684607EB470101230AEB810104F0A3FF70
:101760008DE8070064107F1C002CEED1194F7F44D8
:10177000AE3F19E0E80715D007EB04100DF1180A89
:1017800090E80E008AE80E00C068F04201D1981976
:1017900008903246012306A903A804F084FF03AB96
:1017A00083E807006D10641C002DE3D14FF00103A6
:1017B00032466946B8F1000F03A802D004F05EFF7C
:1017C00001E004F070FFC9E90001C9F808200AB07F
:1017D000BDE8F087B053000010B50446AFF30080B9
:1017E0002046BDE81040FEF74EBE0000004870479E
:1017F000101800100000000030B44FF0013C50F809
:10180000042B51F8043BCCFA52F4D51A20D1FCB980
:1018100050F8042B51F8043BCCFA52F4D51A17D1E6
:10182000B4B950F8042B51F8043BCCFA52F4D51A51
:101830000ED16CB950F8042B51F8043BCCFA52F499
:10184000D51A05D1002CDAD030BC4FF0000070471B
:1018500029BAB1FA81F111F01801D1F120008440C8
:10186000F2D1CA40CB4012F0FF0213F0FF0330BCAC
:10187000D01A704701491820ABBEFEE726000200CF
:101880007047000080B58CB00B900A91099233200C
:1018900004900B9805900A9806900998079041F6D5
:1018A0000000C1F20000006844F6D351C1F26201A9
:1018B000A0FB01108009089004A8694604F072F8A2
:1018C0009DF800000CB080BD80B58CB00B900A91E3
:1018D0008DF82720342004900B9805900A980690E4
:1018E00041F60000C1F20000006844F6D351C1F295
:1018F0006201A0FB0110800907909DF82700089065
:1019000004A8694604F04EF89DF800000CB080BDB4
:1019100080B58AB048F20043C1F6002318685968C0
:101920009A68DB680493039202910190312005903C
:1019300005A801A904F036F89DF804000AB080BD9E
:1019400080B58CB00B900A918DF82720322004903E
:101950000B9805900A9806909DF82700079004A818
:10196000694604F01FF89DF800000CB080BD00002F
:1019700080B58AB03620059005A801A904F012F8B8
:1019800002980AB080BD000080B58AB08DF82700AB
:101990003C2004909DF82700059041F60000C1F21C
:1019A0000000006844F6D351C1F26201A0FB0110AF
:1019B0008009069004A8694603F0F4FF9DF8000032
:1019C0000AB080BD81B08DF80300FFE741F67002D8
:1019D000C1F2000252E8000F9DF803300121994046
:1019E00020EA010142E8001008B1FFE7EEE701B08C
:1019F0007047000080B584B000208DF80F00FFE72D
:101A00009DF80F00072800F31881FFE742F200005D
:101A1000C4F2000000689DF80F10C840C0070028FD
:101A200000F00481FFE79DF80F1042F20010C4F2AD
:101A3000000000EB4110019042F20400C4F20000EB
:101A400000689DF80F10C840C007002800F0B38060
:101A5000FFE79DF80F100120884042F20801C4F210
:101A6000000108609DF80F0000EB800141F6740052
:101A7000C1F2000000EB81008168C068884279D023
:101A8000FFE79DF80F0000EB800141F67400C1F202
:101A9000000000EB81018868C968401A0290029832
:101AA000B0F5805F04D3FFE740F6FF700290FFE7D8
:101AB000029A9DF80F0000EB800141F67400C1F21C
:101AC000000000EB8101C8681044C8600198C0683C
:101AD000400100281DD5FFE79DF80F0000EB8000B6
:101AE00041F67401C1F2000151F82000019A106022
:101AF0000298019AD268C2F3814200FA02F39DF87B
:101B00000F0000EB800251F82200184441F8220037
:101B1000FFE70198C068000100281ED5FFE79DF887
:101B20000F0000EB800141F67400C1F2000000EBF1
:101B300081014968019A51600299019AD268C2F301
:101B4000415201FA02F29DF80F1001EB810100EB06
:101B50008101486810444860FFE70198C068029915
:101B600061F30B000199C8600199086940F0010018
:101B700008611FE09DF80F00FFF724FF9DF80F009C
:101B800000EB800141F67400C1F2000000EB81001F
:101B9000006970B1FFE79DF80F0000EB800141F68E
:101BA0007400C1F2000000EB810001690120884748
:101BB000FFE7FFE739E042F20C00C4F200000068E2
:101BC0009DF80F10C840C00770B3FFE701990020CF
:101BD00008610199C8609DF80F00FFF7F3FE9DF8BA
:101BE0000F100120884042F21001C4F20001086089
:101BF0009DF80F0000EB800141F67400C1F2000077
:101C000000EB8100006970B1FFE79DF80F0000EB69
:101C1000800141F67400C1F2000000EB810001690F
:101C200002208847FFE7FFE7FFE7FFE7FFE79DF8B0
:101C30000F0001308DF80F00E2E604B080BD000017
:101C400080B588B0DDF830C0DDF82CC0DDF828C0E4
:101C50008DF81B000591049203939DF81B00082842
:101C600004DBFFE74FF0FF300790C7E09DF81B0053
:101C700000F0B4FE013020B9FFE74FF0FF300790CD
:101C8000BCE00C989DF81B1001EB810241F6740139
:101C9000C1F2000101EB820108619DF81B1042F2C4
:101CA0000010C4F2000000EB4110029002980021E5
:101CB00001610298C1609DF81B20012000FA02F228
:101CC00042F20803C4F200031A609DF81B2000FAD8
:101CD00002F242F21003C4F200031A60029A916009
:101CE00042F23001C4F20001086041F60000C1F286
:101CF0000000006880090190FFE742F23000C4F262
:101D000000000068C00758B9FFE70198411E019123
:101D100028B9FFE700BF4FF0FF3007906EE0ECE717
:101D200003989DF81B1001EB810241F67401C1F28A
:101D3000000101EB820188600398B0F5805F04D355
:101D4000FFE740F6FF700390FFE70A98039961F3FD
:101D50000B000A900598029908600498029948605F
:101D60009DF82B00400700280AD5FFE703980A9941
:101D7000C1F3814100FA01F1059808440590FFE79D
:101D80009DF82B00000700280AD5FFE703980A9961
:101D9000C1F3415100FA01F1049808440490FFE7AF
:101DA00005989DF81B1001EB810241F67401C1F208
:101DB000000141F8220004989DF81B2002EB8202EA
:101DC00001EB8202506003989DF81B2002EB820217
:101DD00001EB8201C8600A980299C8600B980299C9
:101DE00008619DF82C00C00728B9FFE79DF81B008B
:101DF000FFF7E8FDFFE700200790FFE7079808B02E
:101E000080BD000080B582B08DF803009DF803000E
:101E1000082804DBFFE74FF0FF30019011E09DF848
:101E20000300FFF7CFFD9DF80300420142F21011BD
:101E3000C4F20001885820F0010088500020019071
:101E4000FFE7019802B080BD82B08DF803009DF8D5
:101E50000300082803DBFFE70020019015E09DF850
:101E6000031001EB810241F67400C1F2000000EBA7
:101E70008200C0684A0142F20C11C4F20001895884
:101E80006FF31F31401A0190FFE7019802B07047CD
:101E900080B584B041F61410C1F200000168013130
:101EA00001600068022803D3FFE70020039074E07C
:101EB00041F24041C4F20501086840F001000860A9
:101EC00041F60000C1F20000006880090190FFE7C0
:101ED00041F24440C4F205000068C00758B9FFE76A
:101EE0000198411E019128B9FFE700BF4FF0FF3074
:101EF000039052E0ECE743F25010C4F20500016891
:101F00004FF4002060EA010043F20011C4F2050121
:101F1000086000200290FFE70298072828D8FFE712
:101F20000298420142F21011C4F2000100208850D0
:101F3000029901EB810241F67401C1F2000141F8FE
:101F40002200029A02EB820201EB82025060029AA6
:101F500002EB820201EB82029060029A02EB8202A3
:101F600001EB8201C860FFE7029801300290D3E7DD
:101F700042F20801C4F20001FF20086042F21001A1
:101F8000C4F2000108600220009003F0E3FB009817
:101F900003F094FC00200390FFE7039804B080BD99
:101FA00082B08DF803008DF802109DF803000F2811
:101FB00005D8FFE79DF80200042804D3FFE74FF09F
:101FC000FF30019012E043F21C11C4F204010868D2
:101FD0009DF80320530003229A4090439DF802206D
:101FE0009A401043086000200190FFE7019802B07A
:101FF0007047000080B582B041F61410C1F20000B5
:10200000006820B9FFE74FF0FF3001901EE041F675
:102010001410C1F20000016801390160006818B1B4
:10202000FFE70020019011E041F24041C4F20501B8
:10203000086820F0010008600220009003F0DAFB3D
:10204000009803F087FB00200190FFE7019802B0A1
:1020500080BD000086B004904FF0FF3002900498DD
:102060000190102800F265800199DFE801F00C0969
:102070000909096219252B316262444A50565C00F5
:102080000498059066E043F20400C4F2040000687E
:1020900000F00A00023818BF4FF0FF30059059E0F9
:1020A0001820C4F205000068C1070620002918BFE7
:1020B0004FF0FF3005904DE02020C4F2050000688D
:1020C000039039E03020C4F205000068039033E04B
:1020D0004020C4F205000068C00730B1FFE744208B
:1020E000C4F205000068009002E000200090FFE7C5
:1020F0000098039020E04820C4F205000068039097
:102100001AE04C20C4F205000068039014E050204F
:10211000C4F20500006803900EE05420C4F20500EC
:102120000068039008E05820C4F20500006803909E
:1021300002E0029805900DE09DF80C00C00730B950
:10214000FFE79DF80F0000F01F000290FFE70298E4
:102150000590FFE7059806B07047000080B588B08D
:1021600006900120049003900020029006980190B0
:10217000FFE701980090102800F276800099DFE8D0
:1021800001F0090D13191F732563646573732B36F2
:10219000414C57004FF40040029068E041F6003097
:1021A000C0F2B700029062E04FF28000C0F2FA2065
:1021B00002905CE04FF28000C0F2FA20029056E0FC
:1021C00041F60030C0F2B700029050E041F6003016
:1021D000C0F2B70002904AE04820C4F2050000684F
:1021E000C0F38100411C0398484303903FE04C201A
:1021F000C4F205000068C0F38300411C0398484303
:10220000039034E05020C4F205000068C0F383005E
:10221000411C03984843039029E05420C4F2050070
:102220000068C0F38300411C0398484303901EE0FC
:102230005820C4F2050000688108012050FA81F19D
:1022400003984843039012E011E010E000F028F8F2
:1022500005909DF814100498484304909DF81510BB
:1022600003984843039002E00020079015E002988D
:1022700028B9FFE70198FFF7EDFE0190FFE7FFE7C0
:10228000029800283FF475AFFFE70298049948438D
:102290000399B0FBF1F00790FFE7079808B080BD05
:1022A00084B04420C4F20500006803900398C0F392
:1022B0000130013001909DF80E000130009003982C
:1022C000C0F301210120884002909DF80C00800796
:1022D00000280DD5FFE79DF80C000006002806D564
:1022E000FFE702980199484340000190FFE712E0A0
:1022F0009DF80C00000600280CD4FFE79DF80C00A8
:102300004006002806D4FFE70298019948434000A0
:102310000190FFE7FFE70199009840EA012004B02F
:102320007047000041F61810C1F2000000787047B5
:1023300041F61910C1F200000078704780B584B0F2
:10234000039002910192029830B1FFE7019818B111
:10235000FFE7039810B9FFE7FFE7FEE70198411E8A
:10236000084202D0FFE7FFE7FEE741F60800C1F2AE
:10237000000002680021D161916151611161D16059
:102380009160516011600199026891600299026840
:102390005160039902681160016841F25300CCF664
:1023A000B520486101200090072103F0C1FA009890
:1023B00003F054FA04B080BD80B503F001FB80BD8A
:1023C00080B586B00490039141F60400C1F200008C
:1023D0000068406941F25301CCF6B521884204D02F
:1023E000FFE76FF0020005909CE0039880B9FFE7DB
:1023F00041F60401C1F200010868C0680968096972
:10240000884204D1FFE76FF0010005908AE06AE09E
:102410000398B0F1FF3F0EDCFFE7FFE741F6040150
:10242000C1F200010868C06809680969884201D1E1
:10243000FFE7F3E756E0FFE70C20C4F20C00026868
:10244000039841F60001C1F20001096844F6D35334
:10245000C1F26203A1FB0331890900FB0120029054
:10246000029941F288300844884206D2FFE7029878
:1024700041F2883108440290FFE7FFE741F604008B
:10248000C1F200000168C968006802690020914239
:1024900001900BD1FFE70C20C4F20C000168029AF6
:1024A0000020914238BF01200190FFE70198C0074A
:1024B00008B1FFE7E2E741F60401C1F20001086854
:1024C000C06809680969884203D1FFE700200390CA
:1024D000FFE7FFE7039820B9FFE76FF003000590DF
:1024E00020E0FFE7FFE7049841F60402C1F2000292
:1024F00000921168D1F800C01168096913689B68DF
:10250000013B194013685B6801FB03C11268526804
:10251000FEF78DF800980168086901300861012014
:102520000590FFE7059806B080BD000080B586B035
:102530000490039141F60800C1F200000068406970
:1025400041F25301CCF6B521884204D0FFE76FF089
:1025500002000590A7E0039898B9FFE741F608014B
:10256000C1F200010868C0680A681269801A096827
:102570008968884204D3FFE74FF0FF30059092E06E
:1025800073E00398B0F1FF3F11DCFFE7FFE741F68E
:102590000801C1F200010868C0680A681269801A5F
:1025A00009688968884201D3FFE7F0E75CE0FFE74C
:1025B0000C20C4F20C000268039841F60001C1F23D
:1025C0000001096844F6D353C1F26203A1FB033151
:1025D000890900FB01200290029941F288300844E9
:1025E000884206D2FFE7029841F2883108440290FF
:1025F000FFE7FFE741F60800C1F200000168C96883
:1026000002681269891A006882680020914201906C
:102610000BD3FFE70C20C4F20C000168029A0020E3
:10262000914238BF01200190FFE70198C00708B12F
:10263000FFE7DFE741F60801C1F200010868C06862
:102640000A681269801A09688968884203D3FFE71B
:1026500000200390FFE7FFE7039820B9FFE76FF042
:10266000030005901FE0FFE7FFE741F60802C1F213
:1026700000020092106803681068C06811688968D9
:10268000013908401168496800FB0130049912685B
:102690005268FDF7CCFF00980168C8680130C86037
:1026A00000200590FFE7059806B080BD81B08DF849
:1026B00003009DF8030041F61811C1F200010870F3
:1026C00001B0704781B08DF803009DF8030041F61A
:1026D0001911C1F20001087001B0704780B582B0D5
:1026E000019001980021FFF76BFE02B080BD000051
:1026F00080B582B0019001980021FFF717FF02B06A
:1027000080BD000085B0049003910292049800906F
:1027100000200190FFE70198029988420AD2FFE762
:102720000398019A805C00998854FFE70198013072
:102730000190F0E7049843F20441C4F204010860F8
:1027400005B0704780B543F20041C4F20401002097
:1027500008600120FFF7AAFF80BD000080B584B0AB
:1027600003900398FDF744FF02900399029A41F603
:10277000CC20C1F200000190FDF759FF0199BDF88E
:10278000082046F65030C1F6002003F08BFC04B060
:1027900080BD000083B08DF807008DF80610009210
:1027A0009DF807000F2805DCFFE79DF806002028AC
:1027B00004DBFFE74FF0FF3002900FE000989DF838
:1027C0000710C9019DF8062001EB820146F20002C4
:1027D000C4F20802885000200290FFE7029803B07C
:1027E0007047000084B043F22011C4F2040108686D
:1027F00040F47040086043F22411C4F204010868F8
:1028000040F47040086045F20C21C4F200011F2022
:1028100008606C21C4F2050140F60000C0F200100F
:1028200008601821C4F205010020086040F2DC5065
:102830000290FFE7029828B1FFE7FFE7029801380E
:102840000290F7E74421C4F20501086840F0010056
:1028500008600020C0F20E600860FFE74020C4F26C
:1028600005000068C00708B9FFE7F7E76C21C4F26C
:10287000050140F60000C0F60010086040F21A4062
:102880000290FFE7029828B1FFE7FFE702980138BE
:102890000290F7E74421C4F2050140F68000C0F23F
:1028A0000E600860FFE74020C4F205000068C00722
:1028B00008B9FFE7F7E76C21C4F2050140F6000014
:1028C000C0F60010086043F22011C4F20401086849
:1028D000092262F30F30086043F22411C4F20401AC
:1028E000086862F30F3008602021C4F2050108680F
:1028F00040F0010008604FF48040039014200290E3
:10290000FFE70298B0F5004F0FD8FFE7039880EA81
:10291000500101F00101C0F34D0040EA8130039005
:10292000FFE7029801300290EBE70B20019018209E
:10293000009001984004009940EA815003990843AF
:102940002421C4F2050108608020039040F2023087
:102950000390039800032821C4F2050108601020A9
:10296000039062200390039A0868104308602021B6
:10297000C4F2050140F61C00C0F200600860FFE7E9
:102980001C20C4F205000068C00708B9FFE7F7E79C
:102990004821C4F2050140F60800C0F600100860A6
:1029A0004C21C4F2050140F60400C0F2003008607A
:1029B0005021C4F2050140F60000C0F2001008608A
:1029C0005421C4F2050108605821C4F2050140F603
:1029D0008400C0F60010086004B0704783B08DF822
:1029E0000700FFE741F67000C1F2000050E8000F59
:1029F000009000989DF80710C840C00730B1FFE76D
:102A0000BFF32F8F4FF0FF30029012E0FFE70098E6
:102A10009DF8072001219140014341F67002C1F267
:102A2000000242E800100028DCD1FFE700200290FD
:102A3000FFE7029803B0704780B584B00290029817
:102A40000138B0F1807F03D3FFE7012003901AE043
:102A5000029801384EF21401CEF2000108604FF0E6
:102A6000FF300721019102F041FF01994EF2180257
:102A7000CEF20002002010604EF21002CEF20002F0
:102A800011600390FFE7039804B080BD41F6B811D0
:102A9000C1F20001086801300860704780B582B05B
:102AA0006C20C4F205000068C0F304600190019836
:102AB000FFF754FB41F60001C1F20001086002B0CB
:102AC00080BD000080B54EF68851CEF20001086846
:102AD00040F47000086043F20411C4F205014FF0A5
:102AE000807008604EF21001CEF20001086820F0FC
:102AF0000300086040F20000C1F600206FF31300ED
:102B00004EF60851CEF200010860FFF76BFEFFF7AA
:102B1000C5FF00F001F880BD80B59AB041F23041A8
:102B2000C4F2050107200860FFE741F23440C4F217
:102B300005000068C00708B9FFE7F6E741F60000A6
:102B4000C1F2000000684BF2FF31C0F2C44188427C
:102B500007D8FFE746F60051C4F2080100200860DC
:102B600007E046F60051C4F2080147F277700860AA
:102B7000FFE746F28000C4F20800F22111910160E3
:102B800046F28400C4F20800016046F28800C4F2F4
:102B90000800016046F28C02C4F20802F320129091
:102BA000106046F29002C4F20802106046F29402ED
:102BB000C4F20802106046F29802C4F208021060E3
:102BC00046F29C02C4F20802106046F2A002C4F26F
:102BD0000802106046F2A402C4F20802106046F235
:102BE000A802C4F20802106046F2AC02C4F2080265
:102BF000106046F2B002C4F20802106046F2B4025D
:102C0000C4F20802106046F2B802C4F20802106072
:102C100046F20012C4F20802116046F20412C4F235
:102C20000802116046F20812C4F20802116046F26E
:102C30001812C4F20802116046F21C12C4F2080213
:102C4000106046F22012C4F20802106046F224120C
:102C5000C4F20802106046F22812C4F208021060A2
:102C600046F22C12C4F20802106046F23012C4F28E
:102C70000802106046F23412C4F20802106046F2F4
:102C80008022C4F20802116046F28422C4F20802D3
:102C9000116046F28822C4F20802116046F28C22CA
:102CA000C4F20802116046F29022C4F208021160D8
:102CB00046F29422C4F20802116046F29822C4F24D
:102CC0000802116046F29C22C4F20802116046F22A
:102CD0000433C4F20803F1221A6046F20833C4F246
:102CE00008031A6046F20C33C4F20803186046F277
:102CF0001033C4F20803186046F21433C4F2080318
:102D0000186046F21833C4F208031A6046F21C3306
:102D1000C4F208031A6046F22033C4F208031A60B2
:102D200046F22432C4F20802106046F22832C4F29D
:102D30000802106046F22C32C4F20802106046F21B
:102D40003032C4F20802106046F21052C4F2080297
:102D5000106046F28062C4F20802116046F284629A
:102D6000C4F20802116046F28862C4F208021160DF
:102D700046F28C62C4F20802116046F29062C4F21C
:102D80000802116046F29462C4F20802116046F231
:102D90009862C4F20802116046F29C62C4F2080212
:102DA000116046F2A062C4F20802116046F2A46209
:102DB000C4F20802116046F2A862C4F2080211606F
:102DC00046F2AC62C4F20802116046F2B062C4F28C
:102DD0000802116046F2B462C4F20802116046F2C1
:102DE000B862C4F20802116046F2BC62C4F2080282
:102DF000116046F2C062C4F20802116046F200712E
:102E0000C4F20801086046F20471C4F208010860C7
:102E100046F20871C4F20801086046F20C71C4F26F
:102E20000801086046F21071C4F20801086046F219
:102E30001471C4F20801086046F21871C4F2080166
:102E4000086046F21C71C4F20801086046F2207165
:102E5000C4F20801086046F22471C4F20801086057
:102E600046F22871C4F20801086046F22C71C4F2DF
:102E70000801086046F23071C4F20801086046F2A9
:102E80003471C4F20801086046F23871C4F20801D6
:102E9000086046F23C71C4F20801086045F2000186
:102EA000C4F200010120086045F20801C4F20001EB
:102EB00000200860149041F60000C1F20000006894
:102EC00040F60161C0F22771884243D3FFE7012039
:102ED000149000201390FFE71398042816D8FFE7FA
:102EE000139B4FF0805151F8230015AA42F823009C
:102EF000139A48F21040C1F6002050F8220041F821
:102F00002200FFE7139801301390E5E7BFF36F8FBE
:102F100043F22C10C4F2040041F27841C4F20501DE
:102F200027220123C1F20003984700201390FFE7F6
:102F3000139804280DD8FFE7139A15A850F822001B
:102F40004FF0805141F82200FFE7139801301390B1
:102F5000EEE7FFE746F60041C4F20801F020086002
:102F600046F60441C4F20801086046F60841C4F27E
:102F70000801086046F60C41C4F20801086045F2F9
:102F80000021C4F2000101918A20086045F2082066
:102F9000C4F2000000230A93036045F21021C4F23A
:102FA000000102200F90086041F60000C1F200000D
:102FB0000890006814990131B0FBF1F05A21A0FB90
:102FC00001014CF60022C3F69A320992FDF782FA0B
:102FD000DDF804C0099A0A9B01460898013145F2C0
:102FE0000C2EC4F2000ECEF80010DCF8001041F4F4
:102FF0000021CCF8001045F2001CC4F2000CCDF802
:1030000040C04FF48A41CCF8001045F2041CC4F2D1
:10301000000C40F20331CCF8001045F2280CC4F249
:10302000000C01210691CCF80010006814990131C0
:10303000B0FBF1F01421A0FB0101FDF74BFA099A56
:103040000A9B0146089845F2300CC4F2000CCCF8FB
:103050000010006814990131B0FBF1F02A21A0FBA7
:103060000101FDF737FA099A0A9B0146089845F2D3
:10307000340CC4F2000CCCF8001000681499013133
:10308000B0FBF1F03F210391A0FB0101FDF722FA13
:10309000099A0A9B0146089845F2380CC4F2000CC4
:1030A000CCF80010006814990131B0FBF1F0462112
:1030B0000291A0FB0101FDF70DFA0299099A0A9B02
:1030C0008446089845F23C0EC4F2000ECEF800C0CB
:1030D0000068DDF850C00CF1010CB0FBFCF0A0FB67
:1030E0000101FDF7F7F9099A0A9B0146089845F294
:1030F000400CC4F2000CCCF80010006814990131A7
:10310000B0FBF1F01E210491A0FB0101FDF7E2F9F3
:103110000399099A0A9B8446089845F2440EC4F222
:10312000000ECEF800C00068DDF850C00CF1010CB4
:10313000B0FBFCF0A0FB0101FDF7CCF90399099A63
:103140000A9B8446089845F2480EC4F2000ECEF859
:1031500000C00068DDF850C00CF1010CB0FBFCF0C1
:10316000A0FB0101FDF7B6F90399099A0A9B844671
:10317000089845F24C0EC4F2000ECEF800C000686C
:10318000DDF850C00CF1010CB0FBFCF0A0FB01011C
:10319000FDF7A0F9099A0A9B0146089845F2500CE0
:1031A000C4F2000CCCF80010006814990131B0FB97
:1031B000F1F00E21A0FB0101FDF78CF90499099AA9
:1031C0000A9B8446089845F2540EC4F2000ECEF8CD
:1031D00000C00068DDF850C00CF1010CB0FBFCF041
:1031E000A0FB0101FDF776F945F25801C4F2000198
:1031F0000860642002F070FA45F22001C4F2000178
:103200000E9140F28310059008600A200D9002F0A4
:1032100063FA06980E9A40F20311116002F05CFA0C
:10322000059906980E9A116002F056FA0898099AC4
:103230000A9B006814990131B0FBF1F0C821A0FB92
:103240000101FDF747F902460D9807920A460799D2
:10325000090941EA0271013145F22402C4F2000277
:103260000B92116002F038FA0898099A0A9B0068DC
:1032700014990131B0FBF1F043F60951A0FB0101B3
:10328000FDF728F90B9A03460D980C930B460C9901
:10329000090941EA03710131116002F01DFA0D982C
:1032A0000E9A8321116042F20001C2F603010968FF
:1032B00002F012FA0E9A0F9810991060086840F404
:1032C000002008601AB080BD80B582B001900091E6
:1032D0000198009948F28832C1F6002200F09AF86D
:1032E00002B080BD80B582B048F28830C1F60020BF
:1032F00000F0C4FD0190019802B080BD80B582B09D
:1033000048F28830C1F6002000F0C0FD019001981D
:1033100002B080BD80B548F28830C1F6002000F0D0
:1033200013FE80BD80B582B048F28830C1F600201F
:1033300000F020FE0190019802B080BD80B548F2F7
:103340008830C1F6002000F06DFE80BD80B548F2E7
:103350008830C1F6002000F07BFE80BD80B582B0D1
:103360000190019848F28831C1F6002101F028F857
:1033700002B080BD80B582B08DF807009DF80700CF
:1033800048F28831C1F6002101F046F902B080BD53
:1033900080B582B0019000910198009948F288327E
:1033A000C1F6002201F0FEFA02B080BD80B582B005
:1033B000019000910198009948F28832C1F60022EC
:1033C00001F014FC02B080BD80B582B08DF807001A
:1033D0009DF8070048F28831C1F6002102F004F898
:1033E00002B080BD80B584B0039002910192039831
:1033F0000299019A48F28833C1F6002302F06EF870
:1034000004B080BD80B548F28830C1F6002002F0DB
:10341000BBF880BD80B598B016901591149200202D
:103420000C901498006E90F831008007002805D4A5
:10343000FFE74FF0FF30179000F01CBD0020119007
:1034400010900F900E900D909DF858001538014681
:103450000A91052800F2F4810A99DFE811F00600CC
:103460003100680092001C017801159890B1FFE7C7
:103470001498016E91F8310040F0080081F8310095
:10348000149801F045F814984168C86D40F00100A7
:10349000C86511E01498016E91F8310000F0F70052
:1034A00081F8310014984168C86D20F00100C865AA
:1034B000149801F02DF8FFE70020179000F0DABC17
:1034C0001598C0B1FFE71498016E91F8310040F0F3
:1034D000100081F8310014984168C86C20F0020097
:1034E000C864149801F014F814984168486840F0D2
:1034F0000400486017E01498016E91F8310000F064
:10350000EF0081F8310014984168C86C40F0020067
:10351000C86414984168486820F004004860149812
:1035200000F0F6FFFFE70020179000F0A3BC15980D
:10353000B8B1FFE71498006E90F8260028B1FFE7B5
:103540006FF00100179000F095BC14984168C868AE
:1035500040F04000C8601498016E012081F82600F8
:103560000BE014984168C86820F04000C8601498C7
:10357000016E002081F82600FFE70020179000F080
:1035800079BC14984168486820F00200486014989B
:10359000406D00F0C000013012901498C06D20B949
:1035A000FFE71498806D28B1FFE7129840F00800FB
:1035B0001290FFE7129840F00400129012981499AC
:1035C000496888601498806D60B1FFE71498006EB8
:1035D00090F8260030B1FFE71498806D0078FEF770
:1035E00011FCFFE71498006E90F8260028B3FFE75F
:1035F000149840684069400600281DD4FFE748F24F
:103600008040C0F21E000B90FFE7149840684169AB
:10361000002049060029099008D4FFE70B98411EB5
:103620000B91002818BF01200990FFE70998C007F7
:1036300008B1FFE7E9E7FFE7FFE71498006E90F8AD
:103640003000022807D0FFE71498006E90F8300091
:10365000032818D1FFE71498006E90F8270001287E
:1036600010D1FFE71498006E0021089180F8271010
:10367000149A1920FFF7CEFE0899149A1620FFF726
:10368000C9FEFFE7FFE71498016E002081F82600CD
:10369000179000F0EFBB14984168486820F00100D3
:1036A00048601498406D00F0C000013012901498EA
:1036B000C06D20B9FFE71498806D28B1FFE712981C
:1036C00040F008001290FFE7129840F002001290BC
:1036D00012981499496888601498C06D58B1FFE732
:1036E0001498006E007930B1FFE71498C06D00782F
:1036F000FEF788FBFFE71498006E90F83000022870
:1037000007D0FFE71498006E90F83000032818D116
:10371000FFE71498006E90F82700022810D1FFE709
:103720001498006E0021079180F82710149A182031
:10373000FFF770FE0799149A1520FFF76BFEFFE75D
:10374000FFE71498016E00200871179092E3149817
:103750004168486820F0030048601498806D60B1AB
:10376000FFE71498006E90F8260030B1FFE7149838
:10377000806D0078FEF746FBFFE71498C06D58B1E6
:10378000FFE71498006E007930B1FFE71498C06D20
:103790000078FEF737FBFFE71498406D00F0C0009B
:1037A000013012901498C06D20B9FFE71498806D15
:1037B00028B1FFE7129840F008001290FFE7129836
:1037C00040F0060012901298149949688860149885
:1037D000006E90F8260028B3FFE71498406840690F
:1037E000400600281DD4FFE748F28040C0F21E00CA
:1037F0000B90FFE7149840684169002049060029B2
:10380000069008D4FFE70B98411E0B91002818BFC3
:1038100001200690FFE70698C00708B1FFE7E9E737
:10382000FFE7FFE71498016E002081F82700149944
:10383000096E08711499096E81F82600179019E332
:10384000FFE79DF85800013801460591132800F262
:1038500071810599DFE811F01400180029003A0081
:10386000400051006E016E016E016E016E016E012D
:103870006E016E016E0162006A00FF0023014F01BC
:1038800001208DF84F0059E1149800784008C007D6
:1038900018B1FFE70320119003E06FF006001790C6
:1038A000E8E202208DF84F0048E114980078800883
:1038B000C00718B1FFE70120119003E06FF0060088
:1038C0001790D7E203208DF84F0037E101201090C8
:1038D00004208DF84F0031E1149800780009C007EA
:1038E00018B1FFE701200F9003E06FF0060017907A
:1038F000C0E205208DF84F0020E1149800784009BF
:10390000C00718B1FFE701200E9003E06FF006003A
:103910001790AFE206208DF84F000FE1159814992B
:10392000096E81F8240000201790A3E21498007813
:103930000009C007002800F08780FFE7159838B914
:10394000FFE714984168486A20F0020048627AE074
:103950001498006C0068C0F30460FEF7FFFB01469A
:103960004CF60020C3F69A30B0FBF1F01290149898
:103970004068406A20F038000F9015981299B0EB1B
:10398000410F01D8FFE757E015981299B0EB810F6E
:1039900005D8FFE70F9840F008000F904BE015980E
:1039A0001299B0EBC10F05D8FFE70F9840F0100057
:1039B0000F903FE015981299B0EB011F05D8FFE773
:1039C0000F9840F018000F9033E015981299B0EB63
:1039D000411F05D8FFE70F9840F020000F9027E027
:1039E00015981299B0EB811F05D8FFE70F9840F0AA
:1039F00028000F901BE015981299B0EBC11F05D855
:103A0000FFE70F9840F030000F900FE015981299E3
:103A1000B0EB012F05D8FFE70F9840F038000F906A
:103A200003E04FF0FF30179024E2FFE7FFE7FFE7E6
:103A3000FFE7FFE7FFE7FFE70F9840F00200149968
:103A400049684862FFE703E04FF0FF30179011E24A
:103A5000002017900EE2149800784009C007B8B112
:103A6000FFE71598B0F5807F04D3FFE74FF0FF30F4
:103A70001790FFE114984168886C20F47F408864B7
:103A8000159A14984168886C40EA0220886403E023
:103A90004FF0FF301790EDE100201790EAE1149805
:103AA00000784009C00720B9FFE74FF0FF301790BA
:103AB000E0E1159818B9FFE700201790DAE11498B3
:103AC00000788009C00778B1FFE71499086EC06AD2
:103AD000B1F8641048431599884204D0FFE74FF0CD
:103AE000FF301790C6E103E04FF0FF301790C1E1BF
:103AF00000201790BEE1149800784009C00790B1EB
:103B0000FFE7159838B1FFE714984168886C20F0FA
:103B10000200886406E014984168886C40F0020056
:103B20008864FFE703E04FF0FF301790A2E1002028
:103B300017909FE16FF0030017909BE11498006EBF
:103B4000007930B9FFE71498006E90F8260020B194
:103B5000FFE76FF0010017908CE1169800F4E06029
:103B600001460491D0B1FFE70498B0F5A06F0AD0E8
:103B7000FFE70498B0F5C06F06D0FFE70498B0F5F2
:103B8000E06F06D00FE012E00D9840F001000D90BC
:103B90000DE00D9840F002000D9008E00D9840F007
:103BA00003000D9003E06FF00800179062E1169893
:103BB00000F440500146039150B1FFE70398B0F57F
:103BC000805F06D0FFE70398B0F5005F06D00AE0FB
:103BD0000DE00D9840F018000D9008E00D9840F0B1
:103BE00008000D9003E06FF00900179042E116986D
:103BF00000F440400146029128B1FFE70298B0F579
:103C0000804F01D005E008E00D9840F004000D90D1
:103C100003E06FF00A0017902CE1149880680028E8
:103C200058D0FFE714988068006920F0C0000C901D
:103C3000169800F440300146019178B1FFE70198F1
:103C4000B0F5803F0BD0FFE70198B0F5003F17D0EB
:103C5000FFE70198B0F5403F21D036E039E01498F5
:103C600001780020B0EBD11F05D0FFE70C9840F0A1
:103C700040000C9003E06FF00B001790FAE028E092
:103C800014984078C00728B1FFE70C9840F08000F6
:103C90000C9003E06FF00B001790EBE019E0149824
:103CA00001780020B0EBD11F0AD0FFE714984078CC
:103CB000C00728B1FFE70C9840F0C0000C9003E06B
:103CC0006FF00B001790D5E003E06FF00B0017903A
:103CD000D0E0FFE79DF84F00022805D0FFE79DF8F0
:103CE0004F00032816D1FFE79DF85A00400700282F
:103CF00004D5FFE76FF00C001790BBE0169800F4B6
:103D00000020B0F5002F04D0FFE76FF00D001790F2
:103D1000B0E0FFE71598149901F08EF8013020B952
:103D2000FFE76FF007001790A4E09DF84F0014998B
:103D3000096E81F83000149800F0EAFB149840698D
:103D4000A0B3FFE7802012901498006E90F8300026
:103D500001460091022808D0FFE7009803280DD003
:103D6000FFE70098062814D1FFE7149840694068DF
:103D700000F007011298084312900FE01498406970
:103D8000406800F007001299084340F0400012908C
:103D900004E0129840F040001290FFE71498416947
:103DA00008784978129AFEF7F5FCFFE71498007836
:103DB0004008C00730B9FFE7149800788008C007B2
:103DC00038B1FFE7119840F02400149949688865DC
:103DD000FFE714980078C008C00728B1FFE71098E3
:103DE000149949680864FFE7149800780009C0072F
:103DF00058B1FFE714984068406A20F001000F991D
:103E00000843149949684862FFE71498007840090C
:103E1000C00758B1FFE714984068806C20F001009B
:103E20000E990843149949688864FFE714988068DC
:103E300058B1FFE714988068006920F0C2000C991F
:103E40000843149989680861FFE714984068C068BE
:103E500000F0C0000D99084314994968C86014988F
:103E6000016E91F8310040F0040081F8310000202B
:103E70001790FFE7179818B080BD000082B000903F
:103E8000009800680190019802B0704783B00190DB
:103E90000020029001988068002852D0FFE7019826
:103EA000006E90F83100400700284AD5FFE70198DE
:103EB000806880690090019840780009C00758B177
:103EC000FFE70098029921F00101C206481C002A70
:103ED00048BF08460290FFE7019840788009C00774
:103EE00058B1FFE70098029921F002018206881C70
:103EF000002A48BF08460290FFE701988078C00773
:103F000060B1FFE70098029921F00801420601F133
:103F10000800002A48BF08460290FFE70198417850
:103F20000020B0EBD11F0BD0FFE70098029921F0E1
:103F300004010206081D002A48BF08460290FFE758
:103F4000FFE7029803B0704780B582B001900198F6
:103F5000C06D38B1FFE70198C06D0078FDF774FFC0
:103F6000009004E00198006EC0690090FFE700989F
:103F700002B080BD82B00090002001900098006ED9
:103F800090F831008007002848D5FFE70098406886
:103F90004069019921F001014206481C002A48BFEE
:103FA000084601900098006E0179019801F0010126
:103FB00020F0020040EA41000190019820F0040046
:103FC00001900098006E4179019801F0010120F004
:103FD000080040EAC10001900098006E81790198C4
:103FE00001F0010120F0100040EA0110019000985A
:103FF000006EC179019801F0010120F0200040EA33
:10400000411001900098006E017A019801F00101C1
:1040100020F0400040EA81100190FFE7019802B0D3
:104020007047000080B582B001900198806D38B172
:10403000FFE70198806D0078FDF706FF009004E02F
:104040000198006E006A0090FFE7009802B080BD02
:1040500080B58AB0099000200590079009984068C3
:10406000806808909DF82000C007002840F09881E3
:10407000FFE7089800F00E00022840F08580FFE777
:1040800010200690FFE70699481E06900020049035
:1040900081B1FFE70998006E01690020049049B1E1
:1040A000FFE70998016E0869096A401A18BF0120E4
:1040B0000490FFE70498C00750B3FFE70998006E2B
:1040C00090F83000022807D0FFE70998006E90F8BA
:1040D000300003280ED1FFE70998006E90F8270002
:1040E000022807D1FFE709984168006E90F8240084
:1040F000086007E009984168026E9069126A805C66
:104100000860FFE70998016E086A01300862BAE7A3
:104110000998016E0869096A884234D1FFE7099855
:104120004168486820F0020048600998016E00204C
:1041300081F826000998006E90F83000022807D018
:10414000FFE70998006E90F83000032815D1FFE7CB
:104150000998006E90F8270001280DD1FFE7099813
:10416000006E90F83100C006002805D4FFE70798DC
:1041700040F001000790FFE704E0079840F00100DD
:104180000790FFE7FFE7FFE7089800F00E0006281A
:1041900008D1FFE7099800F0CDFC014607980843D5
:1041A0000790FFE7089800F00E00042807D0FFE70B
:1041B000089800F00E000C2840F0C780FFE709982F
:1041C000406D039060B1FFE7039840280BD0FFE7F4
:1041D000039880280AD0FFE70398C02809D00BE095
:1041E0000120059008E00320059005E007200590D8
:1041F00002E00D200590FFE7FFE70998406841695C
:104200000020C907029041B1FFE70598411E0591C2
:10421000002818BF01200290FFE70298C00700287D
:1042200000F09280FFE7099800F084FC01460798AF
:10423000084307900998006E90F83000022807D0D4
:10424000FFE70998006E90F83000032810D1FFE7CF
:104250000998006E90F82700012809D1FFE7099816
:10426000406800680998016EC8690130C8611DE0A6
:104270000998006EC168C06988420ED2FFE70998AC
:104280004068006809990A6E5169D2698854099892
:10429000016EC8690130C86107E00998406800688C
:1042A000079840F020000790FFE7FFE70998006EAD
:1042B000C168C069884246D1FFE7099841684868EB
:1042C00020F0010048600998016E002008710998EB
:1042D000006E90F83000022807D0FFE70998006EC2
:1042E00090F83000032828D1FFE70998006E90F875
:1042F000270006900998016E002081F82700069893
:104300000190012808D0FFE70198022809D0FFE7B3
:10431000019803280AD00EE0079840F001000790AA
:104320000AE0079840F00200079005E0079840F087
:104330000400079000E0FFE704E0079840F0020067
:104340000790FFE700E058E7FFE7089800F00E004D
:104350000C2824D1FFE70998006E90F8300002285D
:104360001CD0FFE70998006E90F83000032815D0A4
:10437000FFE70998006EC06878B1FFE70998006E02
:10438000C168C069884208D0FFE7099840680068A2
:10439000079840F040000790FFE7FFE7FFE7FFE7DF
:1043A0000998006E006848B1FFE7079830B1FFE751
:1043B0000998006E016807988847FFE70AB080BD3A
:1043C00080B586B0049003910398006E90F8310098
:1043D000C00718B1FFE70020059096E00498039904
:1043E000096E08600398016E00200190087103991E
:1043F000096E48710399096E88710399096EC87135
:104400000399096E08720399096E029188624862E5
:104410000862C861886148610861C8600398407893
:104420000009C00758B1FFE70398826910785178F6
:104430005268182363F3DF02FEF7ACF9FFE7039835
:104440004078C008C00750B1FFE70398C2691078F0
:104450005178526802F00702FEF79CF9FFE70398D3
:1044600041780020B0EBD11F0BD0FFE70398026A20
:10447000107851785268182363F3DF02FEF78AF947
:10448000FFE7039840788009C00758B1FFE7039819
:10449000426A107851785268182363F3DF02FEF7FE
:1044A00079F9FFE7039840784009C00750B1FFE76A
:1044B0000398826A10785178526802F00702FEF77A
:1044C00069F9FFE703988078C00758B1FFE70398C0
:1044D000C26A107851785268182363F3DF02FEF73E
:1044E00059F9FFE70398806D20B9FFE70398C06D85
:1044F00018B1FFE7FDF7CCFCFFE70398016E012040
:1045000081F8310000200590FFE7059806B080BDD6
:1045100080B584B003900398006E90F83010481E68
:10452000029103280CD3FFE7029804283FD0FFE74D
:104530000298052804D0FFE70298062837D069E0E2
:104540000398006E90F83100C00600280BD5FFE7F5
:1045500003980269107851785268182363F3DF02D8
:10456000FEF718F907E00398016908784978802276
:10457000FEF710F9FFE70398006E90F8310000078E
:1045800000280BD5FFE70398C2681078517852686D
:10459000182363F3DF02FEF7FDF807E00398C16814
:1045A000087849788022FEF7F5F8FFE732E00398B3
:1045B000006E90F83100C006002808D4FFE7039889
:1045C000006E90F831000007002812D5FFE703982D
:1045D0000169087849788022FEF7DCF80398C26800
:1045E000107851785268182363F3DF02FEF7D2F88F
:1045F0000FE0039801690878497880220192FEF75C
:10460000C9F8019A0398C16808784978FEF7C2F89A
:10461000FFE7FFE704B080BD80B58AB08DF82300C6
:1046200007910798006E90F83100C00720B9FFE7A6
:104630004FF0FF300990B2E19DF8230070B1FFE721
:104640009DF82300022809D0FFE79DF823000128E8
:1046500004D0FFE76FF004000990A0E19DF823006B
:104660000146049150B1FFE70498012800F0BD8095
:10467000FFE70498022800F0BC808DE1079A18201B
:1046800000210391FEF7C6FE0399079A1920FEF751
:10469000C1FE0399079A1A20FEF7BCFE079890F90D
:1046A000500001F08BF80798806D60B1FFE7079824
:1046B000006E90F8260030B1FFE70798806D007813
:1046C000FDF7A0FBFFE70798C06D58B1FFE707981B
:1046D000006E007930B1FFE70798C06D0078FDF7F4
:1046E00091FBFFE70799486CC96C096860EA010013
:1046F0000799896C086041F60000C1F2000000686B
:1047000080090590FFE70798C06C00680799496C1D
:10471000084208D1FFE70598411E059110B9FFE74F
:1047200000BF00E0EFE70798816B086820F0010008
:10473000086041F60000C1F20000006880090590A1
:10474000FFE70798806B0068C00740B1FFE7059856
:10475000411E059110B9FFE700BF00E0F1E707989F
:10476000016B086820F00100086041F60000C1F20A
:104770000000006880090590FFE70798006B00685B
:10478000C00740B1FFE70598411E059110B9FFE74A
:1047900000BF00E0F1E7079890F9500000F0C2FF79
:1047A0000798016E0020019008710799096E487101
:1047B0000799096E88710799096EC8710799096E82
:1047C00008720799096E0291886248620862C8619E
:1047D000886148610861C8600798016E91F83100EE
:1047E00000F0F90081F83100D6E06FF00300099085
:1047F000D5E00798006E90F83100C00720B9FFE7B8
:104800004FF0FF300990CAE00798006E90F8310031
:104810008007002803D5FFE700200990BFE0079834
:10482000016C40F60000C0F6001008600798016BAC
:10483000086840F00300086041F60000C1F2000083
:10484000006880090590FFE70798006B0068C007C3
:1048500058B9FFE70598411E059128B9FFE700BF49
:104860004FF0FF3009909AE0EEE70798816B0868F7
:1048700040F00300086041F60000C1F2000000684B
:1048800080090590FFE70798806B0068C00758B95A
:10489000FFE70598411E059128B9FFE700BF4FF0DB
:1048A000FF3009907BE0EEE70799486CC96C096816
:1048B00060EA01000799896C086041F60000C1F2C6
:1048C0000000006880090590FFE70798C06C006849
:1048D0000799496C08420BD1FFE70598411E0591E5
:1048E00028B9FFE700BF4FF0FF30099057E0ECE731
:1048F00007984168C86D20F00100C86507984168B5
:10490000C86C40F00200C864079841680020486005
:104910000798406D00F0C000013006900798C06D08
:1049200020B9FFE70798806D28B1FFE7069840F0AF
:1049300008000690FFE7069807994968886007987D
:10494000016E0020009008710799096E487107995F
:10495000096E88710799096EC8710799096E087206
:104960000799096E81F830000799096E81F83100C6
:104970000799096E81F826000798016E032081F8D7
:104980003100079890F9500000F0CCFE079890F99C
:10499000500000F07BFFFFE700200990FFE7099837
:1049A0000AB080BDB0B58AB0089007910692089809
:1049B00018B1FFE7079820B9FFE76FF004000990EE
:1049C000B5E00698006E90F831004007002804D446
:1049D000FFE74FF0FF300990A9E00698006E0079DC
:1049E000012804D1FFE76FF0010009909FE00698CD
:1049F000016E012008714FF000600490079806993D
:104A0000096EC8600698016E002088710699096ECB
:104A1000C8710699096E48710699096E087208995D
:104A2000069A126E51610699096EC8610698006E69
:104A300090F83000022807D0FFE70698006E90F843
:104A4000300003280BD1FFE70698006E90F827008E
:104A5000012803D1FFE700200490FFE7FFE7069855
:104A6000C06D60B3FFE70698C16D48788978FDF79F
:104A700097FA06984168D0F85CE0089A079B04987A
:104A800040F0034C9EF800009EF801504DF20104E6
:104A900065F34504DEF80450EE46CEF80850CEF833
:104AA0000440CEF800C0FDF7CBF805900598013022
:104AB00020B9FFE74FF0FF30099038E006E0069894
:104AC0004168486840F001004860FFE70698006EC2
:104AD00090F83000022807D0FFE70698006E90F8A3
:104AE0003000032820D1FFE70698006E90F82700D9
:104AF000C8B9FFE70698016E022081F82700069AE0
:104B000015200121FEF786FC069A106E24300799C5
:104B100000F06CF80590059820B1FFE74FF0FF30EA
:104B2000099004E0FFE7FFE700200990FFE70998FC
:104B30000AB0B0BD83B00290002000900298406897
:104B4000406900F01E0001909DF8040080070028D5
:104B50001CD5FFE70298016E01204871009840F0D3
:104B6000200000900298006E90F8300003280CD1CD
:104B7000FFE70298006E90F8260028B1FFE7009842
:104B800040F010000090FFE7FFE7FFE79DF804000A
:104B90004007002809D5FFE70298016E012008723E
:104BA000009840F400700090FFE79DF80400C006F4
:104BB000002809D5FFE70298016E0120887100984E
:104BC00040F080000090FFE79DF8040000070028F7
:104BD00009D5FFE70298016E0120C871009840F4E2
:104BE00080700090FFE7009803B07047B0B58CB0BC
:104BF0000A90099108920A9818B1FFE7099820B91C
:104C0000FFE76FF004000B9012E10898006E90F837
:104C100031004007002804D4FFE74FF0FF300B902D
:104C200006E10898006E90F8260020B1FFE76FF0CB
:104C300001000B90FCE00898016E012081F826002D
:104C40004FF0806006900898006E90F830000228BF
:104C500007D0FFE70898006E90F8300003282AD1AB
:104C6000FFE70898006E90F82700C0B9FFE70898A2
:104C7000006E012180F82710089A1620FEF7CAFB63
:104C8000089A106E25300999FFF78CFE0790079857
:104C900020B1FFE74FF0FF300B90C9E00AE0089821
:104CA000006E90F82700022803D1FFE7002006904D
:104CB000FFE7FFE7FFE70A980899096E88610998FE
:104CC0000899096E08610898016E0020086208982A
:104CD000806D60B3FFE70898816D48788978FDF7AB
:104CE0005FF908984268D0F858E00A99099B06983D
:104CF00040F0034C9EF800009EF801504CF6010471
:104D000065F38A14DEF80450EE46CEF80850CEF86B
:104D10000440CEF800C0FCF793FF079007980130DD
:104D200020B9FFE74FF0FF300B9081E07DE008985D
:104D3000406840698006002806D5FFE70898016EA4
:104D4000002081F82800FFE7FFE70898006E90F840
:104D5000281000200F29049009D8FFE70898006E5A
:104D60000169006A401A18BF01200490FFE7049807
:104D7000C00790B1FFE70898036E9869196A4A1C4A
:104D80001A62405C0899496808600898016E91F8B9
:104D90002800013081F82800D7E70898006E0169E3
:104DA000006A884239D1FFE70898016E002081F837
:104DB000260005900898006E90F83000022807D071
:104DC000FFE70898006E90F83000032813D1FFE742
:104DD0000898006E90F8270001280BD1FFE708988B
:104DE000006E90F83100C006002803D4FFE70120D0
:104DF0000590FFE702E001200590FFE70898006EAC
:104E0000006848B1FFE7059830B1FFE70898006EE9
:104E1000016805988847FFE706E0089841684868F8
:104E200040F002004860FFE7FFE700200B90FFE73B
:104E30000B980CB0B0BD000080B590B00E900D91F5
:104E40000D98006C0068C0F30460FDF787F90790C7
:104E500007990803090D0E9A00230093FBF73AFB0C
:104E60000146009806914FF0FF3102918DF8300015
:104E70008DF83100ADF82E00ADF82C00ADF82A0009
:104E80000D98006E90F83000062870D1FFE70D985D
:104E9000B0F86400ADF82A0000200990FFE70998F7
:104EA000472863D8FFE70698099A48F22441C1F6DB
:104EB000002131F82210B0FBF1F0BDF82A10B0FB50
:104EC000F1F004900498B0F5803F01D3FFE749E08A
:104ED00000200890FFE70898012842D8FFE70498CF
:104EE000022804D8FFE704980130049035E00498C4
:104EF000099A48F22441C1F6002131F822104843B2
:104F0000BDF82A10B0FBF1F005900698059988428B
:104F100005D9FFE706980599401A039004E0059823
:104F20000699401A0390FFE703980299884210D22D
:104F3000FFE703980290099948F22440C1F6002047
:104F400000EB810080788DF831000498ADF82E00D8
:104F5000FFE7049801300490FFE7089801300890BB
:104F6000B9E7FFE709980130099098E7F8E1BDF843
:104F70001A00049006980499B0EB014F11D1FFE795
:104F800004990020B0EB115F0BD1FFE700200290E5
:104F90008DF831000498ADF82E001020ADF82A00ED
:104FA000DDE10698B0F54C3F68D3FFE7002009909B
:104FB000FFE70998472860D8FFE70698099A48F262
:104FC0002441C1F6002131F82210B0FBF1F00009B4
:104FD00004900498B0F5803F01D3FFE749E000203A
:104FE0000890FFE70898012842D8FFE704980228B4
:104FF00004D8FFE704980130049035E00498099A3A
:1050000048F22441C1F6002131F822104843000142
:10501000059006980599884205D9FFE706980599F5
:10502000401A039004E005980699401A0390FFE7A0
:1050300003980299884213D2FFE7039802900999D6
:1050400048F22440C1F6002000EB810080788DF802
:1050500031000498ADF82E001020ADF82A00FFE7CB
:10506000049801300490FFE7089801300890B9E7F0
:10507000FFE70998013009909BE76FE10D98806880
:10508000002840F06681FFE706984CF6CD41884243
:10509000C0F01881FFE70698B0F5403F04D9FFE75C
:1050A0000F20ADF82C0067E00698B0F5343F04D926
:1050B000FFE70E20ADF82C005DE00698B0F5283F24
:1050C00004D9FFE70D20ADF82C0053E00698B0F5A9
:1050D000183F04D9FFE70C20ADF82C0049E00698F2
:1050E000B0F50C3F04D9FFE70B20ADF82C003FE0F2
:1050F0000698B0F5003F04D9FFE70A20ADF82C0070
:1051000035E00698B0F5E83F04D9FFE70920ADF88F
:105110002C002BE00698B0F5D03F04D9FFE708201B
:10512000ADF82C0021E00698B0F5B83F04D9FFE7B0
:105130000720ADF82C0017E00698B0F5983F04D989
:10514000FFE70620ADF82C000DE00698B0F1011F36
:1051500004D3FFE70520ADF82C0003E00420ADF8F0
:105160002C00FFE7FFE7FFE7FFE7FFE7FFE7FFE7C9
:10517000FFE7FFE7FFE7FFE70698BDF82C10B0FB5D
:10518000F1F00590BDF81400000568B9FFE70020B4
:1051900002908DF831000598000BADF82E00BDF897
:1051A0002C00ADF82A0043E0032004900020099071
:1051B000FFE7099847283AD8FFE70498099A48F288
:1051C0002441C1F6002131F822104843BDF82C10CB
:1051D0004843059006980599884205D9FFE7069847
:1051E0000599401A039004E005980699401A039027
:1051F000FFE703980299884214D2FFE703980290D0
:10520000099948F22440C1F6002000EB8100807823
:105210008DF831000498ADF82E00BDF82C00ADF8E3
:105220002A00FFE7FFE7099801300990C1E7FFE78F
:105230009DF8310000F00F008DF833009DF831002B
:1052400000098DF83200BDF82E009DF832109DF84F
:1052500033200A445043BDF82A205043000390FBFA
:10526000F1F00590BDF81400000550BBFFE71020D9
:10527000ADF82C00FFE70598BDF82C10B0FBF1F05D
:10528000000590B9FFE7BDF82C100598B0FBF1F0D0
:10529000059000208DF831000598000BADF82E0028
:1052A000BDF82C00ADF82A000AE0BDF82C0001384A
:1052B000ADF82C00FFE7BDF82C000328DBD8FFE792
:1052C000FFE745E04FF4007001904FF45040ADF817
:1052D0002C00FFE70698BDF82C10884206D9FFE79E
:1052E0000698BDF82C10401A039005E0BDF82C007C
:1052F0000699401A0390FFE70398029988420DD25D
:10530000FFE70398029000208DF831000120ADF8EE
:105310002E00BDF82C00ADF82A00FFE70199BDF87A
:105320002C00401AADF82C00FFE7BDF82C1000202F
:10533000B0EB913FCED1FFE7BDF82A00C0F3422089
:105340008DF83000BDF82A00000BADF82A00FFE709
:1053500003E04FF0FF300F9043E0FFE7FFE7FFE788
:105360000298642148430699B0FBF1F0042804D365
:10537000FFE74FF0FF300F9033E00D984168C868A9
:1053800040F08000C8609DF82F000D994968486082
:105390009DF82E000D99496808600D984168C8680D
:1053A00020F08000C8609DF831000D99496888623E
:1053B0000D98806870B9FFE7BDF82A106FF00F00F4
:1053C00000EB01109DF8301040EA41000D9949684A
:1053D000C862FFE70E980D99096EC86200200F9011
:1053E000FFE70F9810B080BD83B08DF807000091E3
:1053F0000098006E90F831004007002804D4FFE7C1
:105400004FF0FF30029065E00098806820B9FFE718
:105410006FF0030002905DE09DF8070090B9FFE790
:1054200000984078C008C00738B1FFE7009881684D
:10543000086920F00200086103E06FF003000290A9
:1054400048E0FFE79DF80700012812D1FFE7009828
:105450004078C008C00738B1FFE700988168086944
:1054600040F00200086103E06FF00300029031E0B9
:10547000FFE79DF80700022812D1FFE70098407867
:105480004009C00738B1FFE700988168086920F03B
:105490000100086103E06FF0030002901AE0FFE7EB
:1054A0009DF80700032812D1FFE7009840784009D3
:1054B000C00738B1FFE700988168086940F0010033
:1054C000086103E06FF00300029003E0FFE70020B3
:1054D0000290FFE7029803B07047000080B586B0E5
:1054E0000490039102920193049830B1FFE703986E
:1054F00018B1FFE7029820B9FFE76FF004000590AC
:105500003EE00198006E90F831004007002804D476
:10551000FFE74FF0FF30059032E00198006E90F801
:105520003000022807D0FFE70198006E90F83000A5
:1055300003281ED1FFE70198016E032081F82700A0
:1055400003980299019AFFF72DFA0090009818B17C
:10555000FFE70098059013E004980299019AFFF77D
:1055600045FB0090009818B1FFE70098059007E010
:1055700003E04FF0FF30059002E000200590FFE7C8
:10558000059806B080BD000080B582B001900198FA
:10559000006E90F831008007002805D5FFE70199DB
:1055A0000020FFF739F8FFE70198C06840B1FFE736
:1055B0000198C168087849780022FDF7EBF8FFE709
:1055C0000198006940B1FFE70198016908784978BE
:1055D0000022FDF7DFF8FFE70198406940B1FFE7DF
:1055E00001984169087849780022FDF7D3F8FFE770
:1055F000019840780009C00740B1FFE70198816930
:10560000087849780022FDF7C5F8FFE7019840784F
:10561000C008C00740B1FFE70198C1690878497820
:105620000022FDF7B7F8FFE7019841780020B0EBC2
:10563000D11F08D0FFE70198016A08784978002255
:10564000FDF7A8F8FFE7019840788009C00740B14E
:10565000FFE70198416A087849780022FDF79AF837
:10566000FFE7019840784009C00740B1FFE7019883
:10567000816A087849780022FDF78CF8FFE70198E5
:105680008078C00740B1FFE70198C16A087849787F
:105690000022FDF77FF8FFE70198806D20B9FFE752
:1056A0000198C06D38B1FFE7FCF7A4FCFCF7F0FBF4
:1056B000FCF7A0FCFFE70198016E002081F83100A3
:1056C00002B080BD81B048F27450C1F6002000687D
:1056D0000090009801B0704780B584B003900398A3
:1056E000019041F60000C1F2000000684FF47A71A9
:1056F000A0FB01014CF60022C3F69A320023FAF710
:10570000E9FE01460198A0FB0101800840EA817092
:105710000290FFE70298411E029108B1FFE7F9E706
:1057200004B080BD81B08DF803009DF9030000280E
:105730000ED4FFE79DF9031001F01F0201209040F5
:105740004A094EF28021CEF2000141F82200FFE723
:1057500001B0704781B08DF803009DF90300002867
:105760000ED4FFE79DF9031001F01F0201209040C5
:105770004A094EF28021CEF2000141F82200FFE7F3
:1057800001B0704781B08DF803009DF90300002837
:1057900012D4FFE79DF9031001F01F020120904091
:1057A0004A094EF28011CEF2000141F82200BFF307
:1057B0004F8FBFF36F8FFFE701B0704781B08DF857
:1057C00003009DF90300002812D4FFE79DF90310A0
:1057D00001F01F02012090404A094EF28011CEF2E2
:1057E000000141F82200BFF34F8FBFF36F8FFFE737
:1057F00001B0704781B08DF803009DF903000028C7
:1058000012D4FFE79DF9031001F01F020120904020
:105810004A094EF28011CEF2000141F82200BFF396
:105820004F8FBFF36F8FFFE701B0704781B08DF8E6
:1058300003009DF9030000280ED4FFE79DF9031033
:1058400001F01F02012090404A094EF20011CEF2F1
:10585000000141F82200FFE701B0704781B08DF8E8
:1058600003009DF9030000280ED4FFE79DF9031003
:1058700001F01F02012090404A094EF20011CEF2C1
:10588000000141F82200FFE701B0704781B08DF8B8
:1058900003009DF9030000280ED4FFE79DF90310D3
:1058A00001F01F02012090404A094EF20011CEF291
:1058B000000141F82200FFE701B0704781B08DF888
:1058C00003009DF9030000280ED4FFE79DF90310A3
:1058D00001F01F02012090404A094EF20011CEF261
:1058E000000141F82200FFE701B0704782B08DF857
:1058F000070000919DF9070000280AD4FFE70098EF
:1059000040019DF907104EF20042CEF20002885489
:105910000BE0009840019DF8071001F00F014EF6D2
:105920001452CEF200028854FFE702B07047000024
:1059300082B08DF8070000919DF9070000280AD475
:10594000FFE7009840019DF907104EF20042CEF2A9
:10595000000288540BE0009840019DF8071001F008
:105960000F014EF61452CEF200028854FFE702B047
:105970007047000082B0019041F6B810C1F20000FB
:1059800000680090FFE741F6B810C1F2000000681F
:105990000099401A0199884201D8FFE7F3E702B065
:1059A0007047000080B582B00190009140F2001075
:1059B000C1F24000026801980099904702B080BD92
:1059C000BFF34F8F40BF704780B594B000200E905A
:1059D0001390FDF777F80E988DF84B000A208DF89C
:1059E0004A0041F60000C1F20000006844F6D351BD
:1059F000C1F26201A0FB01108009FDF71DF8FDF75F
:105A00004DF846F65030C1F6002000F0B1FA012002
:105A10000C90FFF70BFF0C98FCF754FE46F6CC20D9
:105A2000C1F60020FCF79AFE46F6DE20C1F6002003
:105A3000FCF794FE43F20411C4F205010D914FF0FE
:105A40008070086046F68831C1F600210020C1F25E
:105A500008004FF4C052FCF755FE41F6C410C1F2E5
:105A6000000008212022FCF769FC46F6E920C1F677
:105A70000020FCF773FE0D990E980860FFE7FCF715
:105A800051FC012804D1FFE70020FCF70FFE00E0E5
:105A9000F5E700208DF84800FFE79DF84800092849
:105AA00000F39380FFE79DF848004AF6AB21CAF661
:105AB000AA21A0FB0121490801EB4101401A01463E
:105AC0000B9140B1FFE70B98012808D0FFE70B9836
:105AD000022808D00BE002208DF84B0007E00320DD
